{
  "transactions": [
    {
      "hash": "0x09146b16b639f8963354dbb0a0a239b64a6e50db506c4ed00f960e1775e1bdd8",
      "transactionType": "CALL",
      "contractName": null,
      "contractAddress": "0x06b5c84c6fb16b9c043ccbb5399ac267f38e9e19",
      "function": "setTier(address,uint256)",
      "arguments": [
        "0xF5D46bDe4dC092aa637A7A04212Acb7aB030fa32",
        "1"
      ],
      "transaction": {
        "from": "0x84dc6f8a9cb1e042a0e5a3b4a809c90beb9d3448",
        "to": "0x06b5c84c6fb16b9c043ccbb5399ac267f38e9e19",
        "gas": "0x11dcf",
        "value": "0x0",
        "input": "0xa914adce000000000000000000000000f5d46bde4dc092aa637a7a04212acb7ab030fa320000000000000000000000000000000000000000000000000000000000000001",
        "nonce": "0x3a",
        "chainId": "0x1"
      },
      "additionalContracts": [],
      "isFixedGasLimit": false
    },
    {
      "hash": "0x9e3261073aa92c01a1975df697049c3e5dd7eb819b2f37dc220c2605b37dfabe",
      "transactionType": "CALL",
      "contractName": null,
      "contractAddress": "0x06b5c84c6fb16b9c043ccbb5399ac267f38e9e19",
      "function": "setTier(address,uint256)",
      "arguments": [
        "0x5279d4F55096a427b9121c6D642395a4f0Cd04a4",
        "1"
      ],
      "transaction": {
        "from": "0x84dc6f8a9cb1e042a0e5a3b4a809c90beb9d3448",
        "to": "0x06b5c84c6fb16b9c043ccbb5399ac267f38e9e19",
        "gas": "0x11dcf",
        "value": "0x0",
        "input": "0xa914adce0000000000000000000000005279d4f55096a427b9121c6d642395a4f0cd04a40000000000000000000000000000000000000000000000000000000000000001",
        "nonce": "0x3b",
        "chainId": "0x1"
      },
      "additionalContracts": [],
      "isFixedGasLimit": false
    },
    {
      "hash": "0xacc84de32319c9164e6ffe16bced02e10fed3953cc56d4d3911bde812f5a1c1e",
      "transactionType": "CALL",
      "contractName": null,
      "contractAddress": "0x06b5c84c6fb16b9c043ccbb5399ac267f38e9e19",
      "function": "setTier(address,uint256)",
      "arguments": [
        "0x250e6E64276D5e9a1cA0B6C5B2B11c5139CD1Fc7",
        "1"
      ],
      "transaction": {
        "from": "0x84dc6f8a9cb1e042a0e5a3b4a809c90beb9d3448",
        "to": "0x06b5c84c6fb16b9c043ccbb5399ac267f38e9e19",
        "gas": "0x11dcf",
        "value": "0x0",
        "input": "0xa914adce000000000000000000000000250e6e64276d5e9a1ca0b6c5b2b11c5139cd1fc70000000000000000000000000000000000000000000000000000000000000001",
        "nonce": "0x3c",
        "chainId": "0x1"
      },
      "additionalContracts": [],
      "isFixedGasLimit": false
    },
    {
      "hash": "0x5020e8fa3521425cf3e4866b95bb4edef873129be68108a26e7359488d0385c9",
      "transactionType": "CALL",
      "contractName": null,
      "contractAddress": "0x06b5c84c6fb16b9c043ccbb5399ac267f38e9e19",
      "function": "setTier(address,uint256)",
      "arguments": [
        "0xA68D88522E06c226f1a3B9D04A86d4CdaCE666fE",
        "1"
      ],
      "transaction": {
        "from": "0x84dc6f8a9cb1e042a0e5a3b4a809c90beb9d3448",
        "to": "0x06b5c84c6fb16b9c043ccbb5399ac267f38e9e19",
        "gas": "0x11dcf",
        "value": "0x0",
        "input": "0xa914adce000000000000000000000000a68d88522e06c226f1a3b9d04a86d4cdace666fe0000000000000000000000000000000000000000000000000000000000000001",
        "nonce": "0x3d",
        "chainId": "0x1"
      },
      "additionalContracts": [],
      "isFixedGasLimit": false
    },
    {
      "hash": "0x97bbb5aca6155f051f85baafac7e2c74cdeae41f819c7c7d6347cc21af56f13f",
      "transactionType": "CALL",
      "contractName": null,
      "contractAddress": "0x06b5c84c6fb16b9c043ccbb5399ac267f38e9e19",
      "function": "setTier(address,uint256)",
      "arguments": [
        "0x4Bd6300fc61Fa86b3d98A73CeE89bb54140b45e3",
        "1"
      ],
      "transaction": {
        "from": "0x84dc6f8a9cb1e042a0e5a3b4a809c90beb9d3448",
        "to": "0x06b5c84c6fb16b9c043ccbb5399ac267f38e9e19",
        "gas": "0x11dcf",
        "value": "0x0",
        "input": "0xa914adce0000000000000000000000004bd6300fc61fa86b3d98a73cee89bb54140b45e30000000000000000000000000000000000000000000000000000000000000001",
        "nonce": "0x3e",
        "chainId": "0x1"
      },
      "additionalContracts": [],
      "isFixedGasLimit": false
    },
    {
      "hash": null,
      "transactionType": "CALL",
      "contractName": null,
      "contractAddress": "0x06b5c84c6fb16b9c043ccbb5399ac267f38e9e19",
      "function": "setTier(address,uint256)",
      "arguments": [
        "0x7b1D81Ba131F551DA2f70f7c2363b45DbD451d83",
        "1"
      ],
      "transaction": {
        "from": "0x84dc6f8a9cb1e042a0e5a3b4a809c90beb9d3448",
        "to": "0x06b5c84c6fb16b9c043ccbb5399ac267f38e9e19",
        "gas": "0x11dcf",
        "value": "0x0",
        "input": "0xa914adce0000000000000000000000007b1d81ba131f551da2f70f7c2363b45dbd451d830000000000000000000000000000000000000000000000000000000000000001",
        "nonce": "0x3f",
        "chainId": "0x1"
      },
      "additionalContracts": [],
      "isFixedGasLimit": false
    },
    {
      "hash": null,
      "transactionType": "CALL",
      "contractName": null,
      "contractAddress": "0x06b5c84c6fb16b9c043ccbb5399ac267f38e9e19",
      "function": "setTier(address,uint256)",
      "arguments": [
        "0xac783aEA23528862E2e4E7c9F8Bbc65bfAFe33B3",
        "1"
      ],
      "transaction": {
        "from": "0x84dc6f8a9cb1e042a0e5a3b4a809c90beb9d3448",
        "to": "0x06b5c84c6fb16b9c043ccbb5399ac267f38e9e19",
        "gas": "0x11dcf",
        "value": "0x0",
        "input": "0xa914adce000000000000000000000000ac783aea23528862e2e4e7c9f8bbc65bfafe33b30000000000000000000000000000000000000000000000000000000000000001",
        "nonce": "0x40",
        "chainId": "0x1"
      },
      "additionalContracts": [],
      "isFixedGasLimit": false
    },
    {
      "hash": null,
      "transactionType": "CALL",
      "contractName": null,
      "contractAddress": "0x06b5c84c6fb16b9c043ccbb5399ac267f38e9e19",
      "function": "setTier(address,uint256)",
      "arguments": [
        "0xdf99908D22D2F18B50E15D962E77666da4A04717",
        "1"
      ],
      "transaction": {
        "from": "0x84dc6f8a9cb1e042a0e5a3b4a809c90beb9d3448",
        "to": "0x06b5c84c6fb16b9c043ccbb5399ac267f38e9e19",
        "gas": "0x11dcf",
        "value": "0x0",
        "input": "0xa914adce000000000000000000000000df99908d22d2f18b50e15d962e77666da4a047170000000000000000000000000000000000000000000000000000000000000001",
        "nonce": "0x41",
        "chainId": "0x1"
      },
      "additionalContracts": [],
      "isFixedGasLimit": false
    },
    {
      "hash": null,
      "transactionType": "CALL",
      "contractName": null,
      "contractAddress": "0x06b5c84c6fb16b9c043ccbb5399ac267f38e9e19",
      "function": "setTier(address,uint256)",
      "arguments": [
        "0x3e46e4e203Bc6Aa3b3c6a2993C3cCEDeAF177f61",
        "1"
      ],
      "transaction": {
        "from": "0x84dc6f8a9cb1e042a0e5a3b4a809c90beb9d3448",
        "to": "0x06b5c84c6fb16b9c043ccbb5399ac267f38e9e19",
        "gas": "0x11dcf",
        "value": "0x0",
        "input": "0xa914adce0000000000000000000000003e46e4e203bc6aa3b3c6a2993c3ccedeaf177f610000000000000000000000000000000000000000000000000000000000000001",
        "nonce": "0x42",
        "chainId": "0x1"
      },
      "additionalContracts": [],
      "isFixedGasLimit": false
    },
    {
      "hash": null,
      "transactionType": "CALL",
      "contractName": null,
      "contractAddress": "0x06b5c84c6fb16b9c043ccbb5399ac267f38e9e19",
      "function": "setTier(address,uint256)",
      "arguments": [
        "0xD94A8E20CbDD95D050f1356259E18C4Dd10f661A",
        "1"
      ],
      "transaction": {
        "from": "0x84dc6f8a9cb1e042a0e5a3b4a809c90beb9d3448",
        "to": "0x06b5c84c6fb16b9c043ccbb5399ac267f38e9e19",
        "gas": "0x11dcf",
        "value": "0x0",
        "input": "0xa914adce000000000000000000000000d94a8e20cbdd95d050f1356259e18c4dd10f661a0000000000000000000000000000000000000000000000000000000000000001",
        "nonce": "0x43",
        "chainId": "0x1"
      },
      "additionalContracts": [],
      "isFixedGasLimit": false
    },
    {
      "hash": null,
      "transactionType": "CALL",
      "contractName": null,
      "contractAddress": "0x06b5c84c6fb16b9c043ccbb5399ac267f38e9e19",
      "function": "setTier(address,uint256)",
      "arguments": [
        "0xe079E4AfB3FDd8F02B29C7A333D526b9c4C94B23",
        "1"
      ],
      "transaction": {
        "from": "0x84dc6f8a9cb1e042a0e5a3b4a809c90beb9d3448",
        "to": "0x06b5c84c6fb16b9c043ccbb5399ac267f38e9e19",
        "gas": "0x11dcf",
        "value": "0x0",
        "input": "0xa914adce000000000000000000000000e079e4afb3fdd8f02b29c7a333d526b9c4c94b230000000000000000000000000000000000000000000000000000000000000001",
        "nonce": "0x44",
        "chainId": "0x1"
      },
      "additionalContracts": [],
      "isFixedGasLimit": false
    },
    {
      "hash": null,
      "transactionType": "CALL",
      "contractName": null,
      "contractAddress": "0x06b5c84c6fb16b9c043ccbb5399ac267f38e9e19",
      "function": "setTier(address,uint256)",
      "arguments": [
        "0x0aF20A5C0FFb89dAD55076309925014EaeBb5568",
        "1"
      ],
      "transaction": {
        "from": "0x84dc6f8a9cb1e042a0e5a3b4a809c90beb9d3448",
        "to": "0x06b5c84c6fb16b9c043ccbb5399ac267f38e9e19",
        "gas": "0x11dcf",
        "value": "0x0",
        "input": "0xa914adce0000000000000000000000000af20a5c0ffb89dad55076309925014eaebb55680000000000000000000000000000000000000000000000000000000000000001",
        "nonce": "0x45",
        "chainId": "0x1"
      },
      "additionalContracts": [],
      "isFixedGasLimit": false
    },
    {
      "hash": null,
      "transactionType": "CALL",
      "contractName": null,
      "contractAddress": "0x06b5c84c6fb16b9c043ccbb5399ac267f38e9e19",
      "function": "setTier(address,uint256)",
      "arguments": [
        "0x015FC9C8B333Aeb7A91Fd966bbFE6FF9A0ef8331",
        "1"
      ],
      "transaction": {
        "from": "0x84dc6f8a9cb1e042a0e5a3b4a809c90beb9d3448",
        "to": "0x06b5c84c6fb16b9c043ccbb5399ac267f38e9e19",
        "gas": "0x11dcf",
        "value": "0x0",
        "input": "0xa914adce000000000000000000000000015fc9c8b333aeb7a91fd966bbfe6ff9a0ef83310000000000000000000000000000000000000000000000000000000000000001",
        "nonce": "0x46",
        "chainId": "0x1"
      },
      "additionalContracts": [],
      "isFixedGasLimit": false
    },
    {
      "hash": null,
      "transactionType": "CALL",
      "contractName": null,
      "contractAddress": "0x06b5c84c6fb16b9c043ccbb5399ac267f38e9e19",
      "function": "setTier(address,uint256)",
      "arguments": [
        "0x049E035Fb280b1df29e1c9BaE586F8E2E03311E1",
        "1"
      ],
      "transaction": {
        "from": "0x84dc6f8a9cb1e042a0e5a3b4a809c90beb9d3448",
        "to": "0x06b5c84c6fb16b9c043ccbb5399ac267f38e9e19",
        "gas": "0x11dcf",
        "value": "0x0",
        "input": "0xa914adce000000000000000000000000049e035fb280b1df29e1c9bae586f8e2e03311e10000000000000000000000000000000000000000000000000000000000000001",
        "nonce": "0x47",
        "chainId": "0x1"
      },
      "additionalContracts": [],
      "isFixedGasLimit": false
    },
    {
      "hash": null,
      "transactionType": "CALL",
      "contractName": null,
      "contractAddress": "0x06b5c84c6fb16b9c043ccbb5399ac267f38e9e19",
      "function": "setTier(address,uint256)",
      "arguments": [
        "0xE63cE53A4Ed7B5180311143AA3FE9131b4E0AB88",
        "1"
      ],
      "transaction": {
        "from": "0x84dc6f8a9cb1e042a0e5a3b4a809c90beb9d3448",
        "to": "0x06b5c84c6fb16b9c043ccbb5399ac267f38e9e19",
        "gas": "0x11dcf",
        "value": "0x0",
        "input": "0xa914adce000000000000000000000000e63ce53a4ed7b5180311143aa3fe9131b4e0ab880000000000000000000000000000000000000000000000000000000000000001",
        "nonce": "0x48",
        "chainId": "0x1"
      },
      "additionalContracts": [],
      "isFixedGasLimit": false
    },
    {
      "hash": null,
      "transactionType": "CALL",
      "contractName": null,
      "contractAddress": "0x06b5c84c6fb16b9c043ccbb5399ac267f38e9e19",
      "function": "setTier(address,uint256)",
      "arguments": [
        "0xBD34Dc3FBb661612AAbCADaf758Caa6E22787297",
        "1"
      ],
      "transaction": {
        "from": "0x84dc6f8a9cb1e042a0e5a3b4a809c90beb9d3448",
        "to": "0x06b5c84c6fb16b9c043ccbb5399ac267f38e9e19",
        "gas": "0x11dcf",
        "value": "0x0",
        "input": "0xa914adce000000000000000000000000bd34dc3fbb661612aabcadaf758caa6e227872970000000000000000000000000000000000000000000000000000000000000001",
        "nonce": "0x49",
        "chainId": "0x1"
      },
      "additionalContracts": [],
      "isFixedGasLimit": false
    },
    {
      "hash": null,
      "transactionType": "CALL",
      "contractName": null,
      "contractAddress": "0x06b5c84c6fb16b9c043ccbb5399ac267f38e9e19",
      "function": "setTier(address,uint256)",
      "arguments": [
        "0x60C7d0B2cD22e9D20BE93f9EFFBabF15fd599936",
        "1"
      ],
      "transaction": {
        "from": "0x84dc6f8a9cb1e042a0e5a3b4a809c90beb9d3448",
        "to": "0x06b5c84c6fb16b9c043ccbb5399ac267f38e9e19",
        "gas": "0x11dcf",
        "value": "0x0",
        "input": "0xa914adce00000000000000000000000060c7d0b2cd22e9d20be93f9effbabf15fd5999360000000000000000000000000000000000000000000000000000000000000001",
        "nonce": "0x4a",
        "chainId": "0x1"
      },
      "additionalContracts": [],
      "isFixedGasLimit": false
    },
    {
      "hash": null,
      "transactionType": "CALL",
      "contractName": null,
      "contractAddress": "0x06b5c84c6fb16b9c043ccbb5399ac267f38e9e19",
      "function": "setTier(address,uint256)",
      "arguments": [
        "0x6068efCd7DEdDED2A8444cbb218ffE71fa022D08",
        "1"
      ],
      "transaction": {
        "from": "0x84dc6f8a9cb1e042a0e5a3b4a809c90beb9d3448",
        "to": "0x06b5c84c6fb16b9c043ccbb5399ac267f38e9e19",
        "gas": "0x11dcf",
        "value": "0x0",
        "input": "0xa914adce0000000000000000000000006068efcd7dedded2a8444cbb218ffe71fa022d080000000000000000000000000000000000000000000000000000000000000001",
        "nonce": "0x4b",
        "chainId": "0x1"
      },
      "additionalContracts": [],
      "isFixedGasLimit": false
    },
    {
      "hash": null,
      "transactionType": "CALL",
      "contractName": null,
      "contractAddress": "0x06b5c84c6fb16b9c043ccbb5399ac267f38e9e19",
      "function": "setTier(address,uint256)",
      "arguments": [
        "0xF52eB9b90C0CE6B037381aEa62BfA7A1B5519D31",
        "1"
      ],
      "transaction": {
        "from": "0x84dc6f8a9cb1e042a0e5a3b4a809c90beb9d3448",
        "to": "0x06b5c84c6fb16b9c043ccbb5399ac267f38e9e19",
        "gas": "0x11dcf",
        "value": "0x0",
        "input": "0xa914adce000000000000000000000000f52eb9b90c0ce6b037381aea62bfa7a1b5519d310000000000000000000000000000000000000000000000000000000000000001",
        "nonce": "0x4c",
        "chainId": "0x1"
      },
      "additionalContracts": [],
      "isFixedGasLimit": false
    },
    {
      "hash": null,
      "transactionType": "CALL",
      "contractName": null,
      "contractAddress": "0x06b5c84c6fb16b9c043ccbb5399ac267f38e9e19",
      "function": "setTier(address,uint256)",
      "arguments": [
        "0x128c21DFE98E7478e3cc6513AEF959BBD266Ed0F",
        "1"
      ],
      "transaction": {
        "from": "0x84dc6f8a9cb1e042a0e5a3b4a809c90beb9d3448",
        "to": "0x06b5c84c6fb16b9c043ccbb5399ac267f38e9e19",
        "gas": "0x11dcf",
        "value": "0x0",
        "input": "0xa914adce000000000000000000000000128c21dfe98e7478e3cc6513aef959bbd266ed0f0000000000000000000000000000000000000000000000000000000000000001",
        "nonce": "0x4d",
        "chainId": "0x1"
      },
      "additionalContracts": [],
      "isFixedGasLimit": false
    },
    {
      "hash": null,
      "transactionType": "CALL",
      "contractName": null,
      "contractAddress": "0x06b5c84c6fb16b9c043ccbb5399ac267f38e9e19",
      "function": "setTier(address,uint256)",
      "arguments": [
        "0x255252421d42949843e6bdB40065d39c110c8191",
        "1"
      ],
      "transaction": {
        "from": "0x84dc6f8a9cb1e042a0e5a3b4a809c90beb9d3448",
        "to": "0x06b5c84c6fb16b9c043ccbb5399ac267f38e9e19",
        "gas": "0x12e8f",
        "value": "0x0",
        "input": "0xa914adce000000000000000000000000255252421d42949843e6bdb40065d39c110c81910000000000000000000000000000000000000000000000000000000000000001",
        "nonce": "0x4e",
        "chainId": "0x1"
      },
      "additionalContracts": [],
      "isFixedGasLimit": false
    },
    {
      "hash": null,
      "transactionType": "CALL",
      "contractName": null,
      "contractAddress": "0x06b5c84c6fb16b9c043ccbb5399ac267f38e9e19",
      "function": "setTier(address,uint256)",
      "arguments": [
        "0xC5DCb0A22551FbA93e260028813F0eef25bFfeA6",
        "1"
      ],
      "transaction": {
        "from": "0x84dc6f8a9cb1e042a0e5a3b4a809c90beb9d3448",
        "to": "0x06b5c84c6fb16b9c043ccbb5399ac267f38e9e19",
        "gas": "0x12e8f",
        "value": "0x0",
        "input": "0xa914adce000000000000000000000000c5dcb0a22551fba93e260028813f0eef25bffea60000000000000000000000000000000000000000000000000000000000000001",
        "nonce": "0x4f",
        "chainId": "0x1"
      },
      "additionalContracts": [],
      "isFixedGasLimit": false
    },
    {
      "hash": null,
      "transactionType": "CALL",
      "contractName": null,
      "contractAddress": "0x06b5c84c6fb16b9c043ccbb5399ac267f38e9e19",
      "function": "setTier(address,uint256)",
      "arguments": [
        "0xEaF85B68ce6AC308946580b907C4f84d0Abb07ee",
        "1"
      ],
      "transaction": {
        "from": "0x84dc6f8a9cb1e042a0e5a3b4a809c90beb9d3448",
        "to": "0x06b5c84c6fb16b9c043ccbb5399ac267f38e9e19",
        "gas": "0x11dcf",
        "value": "0x0",
        "input": "0xa914adce000000000000000000000000eaf85b68ce6ac308946580b907c4f84d0abb07ee0000000000000000000000000000000000000000000000000000000000000001",
        "nonce": "0x50",
        "chainId": "0x1"
      },
      "additionalContracts": [],
      "isFixedGasLimit": false
    },
    {
      "hash": null,
      "transactionType": "CALL",
      "contractName": null,
      "contractAddress": "0x06b5c84c6fb16b9c043ccbb5399ac267f38e9e19",
      "function": "setTier(address,uint256)",
      "arguments": [
        "0x63d97917852e12F1591A39D20ba8a2547169B298",
        "1"
      ],
      "transaction": {
        "from": "0x84dc6f8a9cb1e042a0e5a3b4a809c90beb9d3448",
        "to": "0x06b5c84c6fb16b9c043ccbb5399ac267f38e9e19",
        "gas": "0x11dcf",
        "value": "0x0",
        "input": "0xa914adce00000000000000000000000063d97917852e12f1591a39d20ba8a2547169b2980000000000000000000000000000000000000000000000000000000000000001",
        "nonce": "0x51",
        "chainId": "0x1"
      },
      "additionalContracts": [],
      "isFixedGasLimit": false
    },
    {
      "hash": null,
      "transactionType": "CALL",
      "contractName": null,
      "contractAddress": "0x06b5c84c6fb16b9c043ccbb5399ac267f38e9e19",
      "function": "setTier(address,uint256)",
      "arguments": [
        "0x8e80410Ae2c5a394D1a81364fB932dF86Eb4992d",
        "1"
      ],
      "transaction": {
        "from": "0x84dc6f8a9cb1e042a0e5a3b4a809c90beb9d3448",
        "to": "0x06b5c84c6fb16b9c043ccbb5399ac267f38e9e19",
        "gas": "0x11dcf",
        "value": "0x0",
        "input": "0xa914adce0000000000000000000000008e80410ae2c5a394d1a81364fb932df86eb4992d0000000000000000000000000000000000000000000000000000000000000001",
        "nonce": "0x52",
        "chainId": "0x1"
      },
      "additionalContracts": [],
      "isFixedGasLimit": false
    },
    {
      "hash": null,
      "transactionType": "CALL",
      "contractName": null,
      "contractAddress": "0x06b5c84c6fb16b9c043ccbb5399ac267f38e9e19",
      "function": "setTier(address,uint256)",
      "arguments": [
        "0x88C3f21CeCd5846D55d9A82f5A40FBd88E2fC5a5",
        "1"
      ],
      "transaction": {
        "from": "0x84dc6f8a9cb1e042a0e5a3b4a809c90beb9d3448",
        "to": "0x06b5c84c6fb16b9c043ccbb5399ac267f38e9e19",
        "gas": "0x11dcf",
        "value": "0x0",
        "input": "0xa914adce00000000000000000000000088c3f21cecd5846d55d9a82f5a40fbd88e2fc5a50000000000000000000000000000000000000000000000000000000000000001",
        "nonce": "0x53",
        "chainId": "0x1"
      },
      "additionalContracts": [],
      "isFixedGasLimit": false
    },
    {
      "hash": null,
      "transactionType": "CALL",
      "contractName": null,
      "contractAddress": "0x06b5c84c6fb16b9c043ccbb5399ac267f38e9e19",
      "function": "setTier(address,uint256)",
      "arguments": [
        "0x49e5c7645EaF21A531D933dE365ABDB01Ba3A2f6",
        "1"
      ],
      "transaction": {
        "from": "0x84dc6f8a9cb1e042a0e5a3b4a809c90beb9d3448",
        "to": "0x06b5c84c6fb16b9c043ccbb5399ac267f38e9e19",
        "gas": "0x11dcf",
        "value": "0x0",
        "input": "0xa914adce00000000000000000000000049e5c7645eaf21a531d933de365abdb01ba3a2f60000000000000000000000000000000000000000000000000000000000000001",
        "nonce": "0x54",
        "chainId": "0x1"
      },
      "additionalContracts": [],
      "isFixedGasLimit": false
    },
    {
      "hash": null,
      "transactionType": "CALL",
      "contractName": null,
      "contractAddress": "0x06b5c84c6fb16b9c043ccbb5399ac267f38e9e19",
      "function": "setTier(address,uint256)",
      "arguments": [
        "0xACce9487EcF6F32325ad612df0D1f1288653905A",
        "1"
      ],
      "transaction": {
        "from": "0x84dc6f8a9cb1e042a0e5a3b4a809c90beb9d3448",
        "to": "0x06b5c84c6fb16b9c043ccbb5399ac267f38e9e19",
        "gas": "0x11dcf",
        "value": "0x0",
        "input": "0xa914adce000000000000000000000000acce9487ecf6f32325ad612df0d1f1288653905a0000000000000000000000000000000000000000000000000000000000000001",
        "nonce": "0x55",
        "chainId": "0x1"
      },
      "additionalContracts": [],
      "isFixedGasLimit": false
    },
    {
      "hash": null,
      "transactionType": "CALL",
      "contractName": null,
      "contractAddress": "0x06b5c84c6fb16b9c043ccbb5399ac267f38e9e19",
      "function": "setTier(address,uint256)",
      "arguments": [
        "0x84240C190FB0761527bA3A490BFe2e002413CDe4",
        "1"
      ],
      "transaction": {
        "from": "0x84dc6f8a9cb1e042a0e5a3b4a809c90beb9d3448",
        "to": "0x06b5c84c6fb16b9c043ccbb5399ac267f38e9e19",
        "gas": "0x12e8f",
        "value": "0x0",
        "input": "0xa914adce00000000000000000000000084240c190fb0761527ba3a490bfe2e002413cde40000000000000000000000000000000000000000000000000000000000000001",
        "nonce": "0x56",
        "chainId": "0x1"
      },
      "additionalContracts": [],
      "isFixedGasLimit": false
    },
    {
      "hash": null,
      "transactionType": "CALL",
      "contractName": null,
      "contractAddress": "0x06b5c84c6fb16b9c043ccbb5399ac267f38e9e19",
      "function": "setTier(address,uint256)",
      "arguments": [
        "0xeE6343ED1b521440A3c952FCAAA1E487a0403DbC",
        "1"
      ],
      "transaction": {
        "from": "0x84dc6f8a9cb1e042a0e5a3b4a809c90beb9d3448",
        "to": "0x06b5c84c6fb16b9c043ccbb5399ac267f38e9e19",
        "gas": "0x11dcf",
        "value": "0x0",
        "input": "0xa914adce000000000000000000000000ee6343ed1b521440a3c952fcaaa1e487a0403dbc0000000000000000000000000000000000000000000000000000000000000001",
        "nonce": "0x57",
        "chainId": "0x1"
      },
      "additionalContracts": [],
      "isFixedGasLimit": false
    },
    {
      "hash": null,
      "transactionType": "CALL",
      "contractName": null,
      "contractAddress": "0x06b5c84c6fb16b9c043ccbb5399ac267f38e9e19",
      "function": "setTier(address,uint256)",
      "arguments": [
        "0x147EC80822AFD4C6bC13aC116Ce3ae886099AB47",
        "1"
      ],
      "transaction": {
        "from": "0x84dc6f8a9cb1e042a0e5a3b4a809c90beb9d3448",
        "to": "0x06b5c84c6fb16b9c043ccbb5399ac267f38e9e19",
        "gas": "0x11dcf",
        "value": "0x0",
        "input": "0xa914adce000000000000000000000000147ec80822afd4c6bc13ac116ce3ae886099ab470000000000000000000000000000000000000000000000000000000000000001",
        "nonce": "0x58",
        "chainId": "0x1"
      },
      "additionalContracts": [],
      "isFixedGasLimit": false
    }
  ],
  "receipts": [],
  "libraries": [],
  "pending": [
    "0x09146b16b639f8963354dbb0a0a239b64a6e50db506c4ed00f960e1775e1bdd8",
    "0x9e3261073aa92c01a1975df697049c3e5dd7eb819b2f37dc220c2605b37dfabe",
    "0xacc84de32319c9164e6ffe16bced02e10fed3953cc56d4d3911bde812f5a1c1e",
    "0x5020e8fa3521425cf3e4866b95bb4edef873129be68108a26e7359488d0385c9",
    "0x97bbb5aca6155f051f85baafac7e2c74cdeae41f819c7c7d6347cc21af56f13f"
  ],
  "returns": {},
  "timestamp": 1739272725,
  "chain": 1,
  "commit": "bf90717"
}