{
  "transactions": [
    {
      "hash": "0x1527fceb6e931816b6f4a7bb4235ce5f4f4462e71fec3f8c6ac5a3f9313b9093",
      "transactionType": "CALL",
      "contractName": null,
      "contractAddress": "0x06b5c84c6fb16b9c043ccbb5399ac267f38e9e19",
      "function": "setTier(address,uint256)",
      "arguments": [
        "0x147EC80822AFD4C6bC13aC116Ce3ae886099AB47",
        "1"
      ],
      "transaction": {
        "from": "0x84dc6f8a9cb1e042a0e5a3b4a809c90beb9d3448",
        "to": "0x06b5c84c6fb16b9c043ccbb5399ac267f38e9e19",
        "gas": "0x11dcf",
        "value": "0x0",
        "input": "0xa914adce000000000000000000000000147ec80822afd4c6bc13ac116ce3ae886099ab470000000000000000000000000000000000000000000000000000000000000001",
        "nonce": "0x60",
        "chainId": "0x1"
      },
      "additionalContracts": [],
      "isFixedGasLimit": false
    }
  ],
  "receipts": [
    {
      "status": "0x1",
      "cumulativeGasUsed": "0x13e9ca4",
      "logs": [
        {
          "address": "0x06b5c84c6fb16b9c043ccbb5399ac267f38e9e19",
          "topics": [
            "0x58ffae0baf944226215848ca67070a6dfb7d3693f5abd4a1a76285ea4230f152"
          ],
          "data": "0x000000000000000000000000147ec80822afd4c6bc13ac116ce3ae886099ab470000000000000000000000000000000000000000000000000000000000000001",
          "blockHash": "0xe03c2f6b297c543eb73befd4392c721d8c45ecaacff8ac479e148e9085c9ca70",
          "blockNumber": "0x14cfe15",
          "transactionHash": "0x1527fceb6e931816b6f4a7bb4235ce5f4f4462e71fec3f8c6ac5a3f9313b9093",
          "transactionIndex": "0x10c",
          "logIndex": "0x23b",
          "removed": false
        }
      ],
      "logsBloom": "0x00000000000000000000000000000000000000000000000000000000000000000000020000000000000000000000000000000000000000000000000000000000000000000000000000000000010000000000000000000000000000000000000000000000000000000000000000000000000000000000040000000000000000000000000000000000020000000000000000100000000000000000000000000000000000000000000000000000000000000000000008000000000000000000000000000000000000000000000000000000000000000000000000000000000000000000000000000000000000000000000000000000000000000000000000000000",
      "type": "0x2",
      "transactionHash": "0x1527fceb6e931816b6f4a7bb4235ce5f4f4462e71fec3f8c6ac5a3f9313b9093",
      "transactionIndex": "0x10c",
      "blockHash": "0xe03c2f6b297c543eb73befd4392c721d8c45ecaacff8ac479e148e9085c9ca70",
      "blockNumber": "0x14cfe15",
      "gasUsed": "0xceed",
      "effectiveGasPrice": "0x8941c56b",
      "from": "0x84dc6f8a9cb1e042a0e5a3b4a809c90beb9d3448",
      "to": "0x06b5c84c6fb16b9c043ccbb5399ac267f38e9e19",
      "contractAddress": null
    }
  ],
  "libraries": [],
  "pending": [],
  "returns": {},
  "timestamp": 1739273465,
  "chain": 1,
  "commit": "bf90717"
}