{
  "transactions": [
    {
      "hash": "0x6aa40336628ce9ff72d29a519d0b0bf17ce56d2ce9bac72d4b45a9504a6f4b42",
      "transactionType": "CALL",
      "contractName": null,
      "contractAddress": "0x06b5c84c6fb16b9c043ccbb5399ac267f38e9e19",
      "function": "setTier(address,uint256)",
      "arguments": [
        "0x8e80410Ae2c5a394D1a81364fB932dF86Eb4992d",
        "1"
      ],
      "transaction": {
        "from": "0x84dc6f8a9cb1e042a0e5a3b4a809c90beb9d3448",
        "to": "0x06b5c84c6fb16b9c043ccbb5399ac267f38e9e19",
        "gas": "0x11dcf",
        "value": "0x0",
        "input": "0xa914adce0000000000000000000000008e80410ae2c5a394d1a81364fb932df86eb4992d0000000000000000000000000000000000000000000000000000000000000001",
        "nonce": "0x5a",
        "chainId": "0x1"
      },
      "additionalContracts": [],
      "isFixedGasLimit": false
    },
    {
      "hash": "0x5bb8f0fd05dfd3d812c4c37c322665b607c2bb0229f5734e79fdfcec548a8c89",
      "transactionType": "CALL",
      "contractName": null,
      "contractAddress": "0x06b5c84c6fb16b9c043ccbb5399ac267f38e9e19",
      "function": "setTier(address,uint256)",
      "arguments": [
        "0x88C3f21CeCd5846D55d9A82f5A40FBd88E2fC5a5",
        "1"
      ],
      "transaction": {
        "from": "0x84dc6f8a9cb1e042a0e5a3b4a809c90beb9d3448",
        "to": "0x06b5c84c6fb16b9c043ccbb5399ac267f38e9e19",
        "gas": "0x11dcf",
        "value": "0x0",
        "input": "0xa914adce00000000000000000000000088c3f21cecd5846d55d9a82f5a40fbd88e2fc5a50000000000000000000000000000000000000000000000000000000000000001",
        "nonce": "0x5b",
        "chainId": "0x1"
      },
      "additionalContracts": [],
      "isFixedGasLimit": false
    },
    {
      "hash": "0x01301355f3565722377b530b31d02395b6b4905d026d5b50d4b87fd7ca80e9d7",
      "transactionType": "CALL",
      "contractName": null,
      "contractAddress": "0x06b5c84c6fb16b9c043ccbb5399ac267f38e9e19",
      "function": "setTier(address,uint256)",
      "arguments": [
        "0x49e5c7645EaF21A531D933dE365ABDB01Ba3A2f6",
        "1"
      ],
      "transaction": {
        "from": "0x84dc6f8a9cb1e042a0e5a3b4a809c90beb9d3448",
        "to": "0x06b5c84c6fb16b9c043ccbb5399ac267f38e9e19",
        "gas": "0x11dcf",
        "value": "0x0",
        "input": "0xa914adce00000000000000000000000049e5c7645eaf21a531d933de365abdb01ba3a2f60000000000000000000000000000000000000000000000000000000000000001",
        "nonce": "0x5c",
        "chainId": "0x1"
      },
      "additionalContracts": [],
      "isFixedGasLimit": false
    },
    {
      "hash": "0xa0bef05acdf8f9876d5fb7e1e7da97d412823726d759f4423c2092dfdb353c4f",
      "transactionType": "CALL",
      "contractName": null,
      "contractAddress": "0x06b5c84c6fb16b9c043ccbb5399ac267f38e9e19",
      "function": "setTier(address,uint256)",
      "arguments": [
        "0xACce9487EcF6F32325ad612df0D1f1288653905A",
        "1"
      ],
      "transaction": {
        "from": "0x84dc6f8a9cb1e042a0e5a3b4a809c90beb9d3448",
        "to": "0x06b5c84c6fb16b9c043ccbb5399ac267f38e9e19",
        "gas": "0x11dcf",
        "value": "0x0",
        "input": "0xa914adce000000000000000000000000acce9487ecf6f32325ad612df0d1f1288653905a0000000000000000000000000000000000000000000000000000000000000001",
        "nonce": "0x5d",
        "chainId": "0x1"
      },
      "additionalContracts": [],
      "isFixedGasLimit": false
    },
    {
      "hash": "0x8f29ba3babbfb9b49886ce189f5e069a7bbf0900b63a4ab2c50b0d84266798e3",
      "transactionType": "CALL",
      "contractName": null,
      "contractAddress": "0x06b5c84c6fb16b9c043ccbb5399ac267f38e9e19",
      "function": "setTier(address,uint256)",
      "arguments": [
        "0x84240C190FB0761527bA3A490BFe2e002413CDe4",
        "1"
      ],
      "transaction": {
        "from": "0x84dc6f8a9cb1e042a0e5a3b4a809c90beb9d3448",
        "to": "0x06b5c84c6fb16b9c043ccbb5399ac267f38e9e19",
        "gas": "0x12e8f",
        "value": "0x0",
        "input": "0xa914adce00000000000000000000000084240c190fb0761527ba3a490bfe2e002413cde40000000000000000000000000000000000000000000000000000000000000001",
        "nonce": "0x5e",
        "chainId": "0x1"
      },
      "additionalContracts": [],
      "isFixedGasLimit": false
    },
    {
      "hash": "0x40e57ed67e119eae765dd4eb4abb2fc90816e2ab77ece610cf70bc46725d456b",
      "transactionType": "CALL",
      "contractName": null,
      "contractAddress": "0x06b5c84c6fb16b9c043ccbb5399ac267f38e9e19",
      "function": "setTier(address,uint256)",
      "arguments": [
        "0xeE6343ED1b521440A3c952FCAAA1E487a0403DbC",
        "1"
      ],
      "transaction": {
        "from": "0x84dc6f8a9cb1e042a0e5a3b4a809c90beb9d3448",
        "to": "0x06b5c84c6fb16b9c043ccbb5399ac267f38e9e19",
        "gas": "0x11dcf",
        "value": "0x0",
        "input": "0xa914adce000000000000000000000000ee6343ed1b521440a3c952fcaaa1e487a0403dbc0000000000000000000000000000000000000000000000000000000000000001",
        "nonce": "0x5f",
        "chainId": "0x1"
      },
      "additionalContracts": [],
      "isFixedGasLimit": false
    },
    {
      "hash": null,
      "transactionType": "CALL",
      "contractName": null,
      "contractAddress": "0x06b5c84c6fb16b9c043ccbb5399ac267f38e9e19",
      "function": "setTier(address,uint256)",
      "arguments": [
        "0x147EC80822AFD4C6bC13aC116Ce3ae886099AB47",
        "1"
      ],
      "transaction": {
        "from": "0x84dc6f8a9cb1e042a0e5a3b4a809c90beb9d3448",
        "to": "0x06b5c84c6fb16b9c043ccbb5399ac267f38e9e19",
        "gas": "0x11dcf",
        "value": "0x0",
        "input": "0xa914adce000000000000000000000000147ec80822afd4c6bc13ac116ce3ae886099ab470000000000000000000000000000000000000000000000000000000000000001",
        "nonce": "0x60",
        "chainId": "0x1"
      },
      "additionalContracts": [],
      "isFixedGasLimit": false
    }
  ],
  "receipts": [],
  "libraries": [],
  "pending": [
    "0x6aa40336628ce9ff72d29a519d0b0bf17ce56d2ce9bac72d4b45a9504a6f4b42",
    "0x5bb8f0fd05dfd3d812c4c37c322665b607c2bb0229f5734e79fdfcec548a8c89",
    "0x01301355f3565722377b530b31d02395b6b4905d026d5b50d4b87fd7ca80e9d7",
    "0xa0bef05acdf8f9876d5fb7e1e7da97d412823726d759f4423c2092dfdb353c4f",
    "0x8f29ba3babbfb9b49886ce189f5e069a7bbf0900b63a4ab2c50b0d84266798e3",
    "0x40e57ed67e119eae765dd4eb4abb2fc90816e2ab77ece610cf70bc46725d456b"
  ],
  "returns": {},
  "timestamp": 1739273386,
  "chain": 1,
  "commit": "bf90717"
}