{
  "transactions": [
    {
      "hash": "0x1af099c0a4ebe56c3cdfadbdde9305f1b81e9ca97467f0d53560753d81e3c3ec",
      "transactionType": "CALL",
      "contractName": null,
      "contractAddress": "0x3908b45ce7395dba8a76bfbc16ee99e85b9e88a3",
      "function": "setExchangeWhitelist(address,bool)",
      "arguments": [
        "0x3fC91A3afd70395Cd496C647d5a6CC9D4B2b7FAD",
        "false"
      ],
      "transaction": {
        "from": "0x84dc6f8a9cb1e042a0e5a3b4a809c90beb9d3448",
        "to": "0x3908b45ce7395dba8a76bfbc16ee99e85b9e88a3",
        "gas": "0xab0b",
        "value": "0x0",
        "input": "0x08b11bd50000000000000000000000003fc91a3afd70395cd496c647d5a6cc9d4b2b7fad0000000000000000000000000000000000000000000000000000000000000000",
        "nonce": "0x74",
        "chainId": "0x1"
      },
      "additionalContracts": [],
      "isFixedGasLimit": false
    }
  ],
  "receipts": [
    {
      "status": "0x1",
      "cumulativeGasUsed": "0xd38aac",
      "logs": [
        {
          "address": "0x3908b45ce7395dba8a76bfbc16ee99e85b9e88a3",
          "topics": [
            "0x857f6dc03578bcc97a1e67e291169d7ab5809cc1370019191b1908c9ac917485"
          ],
          "data": "0x0000000000000000000000003fc91a3afd70395cd496c647d5a6cc9d4b2b7fad0000000000000000000000000000000000000000000000000000000000000000",
          "blockHash": "0x2ce9dae78a5b612cd24aff8de343003d6d262160dfefca7a0c4ed3bd753da536",
          "blockNumber": "0x15cb268",
          "transactionHash": "0x1af099c0a4ebe56c3cdfadbdde9305f1b81e9ca97467f0d53560753d81e3c3ec",
          "transactionIndex": "0x9a",
          "logIndex": "0x13d",
          "removed": false
        }
      ],
      "logsBloom": "0x00000000000000400000000000000000000004000000000000000000000000000000000000200000000000040000000000000000000000000000000000000000000000000000000000000000000000000000000000000000000000000000000000000000000000000000000000000000000000000000000000000000000000000000000000000000000000000000000000000000000000000000000000000000000000000000000000000000000000004000000000000000000000000000000000000000000000000000000000000000000000000000000000000000000000000000000000000000000000000000000000000001000000000000000000000000",
      "type": "0x2",
      "transactionHash": "0x1af099c0a4ebe56c3cdfadbdde9305f1b81e9ca97467f0d53560753d81e3c3ec",
      "transactionIndex": "0x9a",
      "blockHash": "0x2ce9dae78a5b612cd24aff8de343003d6d262160dfefca7a0c4ed3bd753da536",
      "blockNumber": "0x15cb268",
      "gasUsed": "0x7bd6",
      "effectiveGasPrice": "0x10cfc5c7",
      "from": "0x84dc6f8a9cb1e042a0e5a3b4a809c90beb9d3448",
      "to": "0x3908b45ce7395dba8a76bfbc16ee99e85b9e88a3",
      "contractAddress": null
    }
  ],
  "libraries": [],
  "pending": [],
  "returns": {},
  "timestamp": 1751708619270,
  "chain": 1,
  "commit": "ebb6382"
}