{
  "transactions": [
    {
      "hash": "0xa41d00a63f472d824640c5335048a51f28cbde9513b19ea1a21dea518463cb54",
      "transactionType": "CALL",
      "contractName": null,
      "contractAddress": "0x3908b45ce7395dba8a76bfbc16ee99e85b9e88a3",
      "function": "setTier(address,uint256)",
      "arguments": [
        "0x6BB092525c504d39551EB3Ac208D1c4423bFD13F",
        "0"
      ],
      "transaction": {
        "from": "0x84dc6f8a9cb1e042a0e5a3b4a809c90beb9d3448",
        "to": "0x3908b45ce7395dba8a76bfbc16ee99e85b9e88a3",
        "gas": "0xb133",
        "value": "0x0",
        "input": "0xa914adce0000000000000000000000006bb092525c504d39551eb3ac208d1c4423bfd13f0000000000000000000000000000000000000000000000000000000000000000",
        "nonce": "0x65",
        "chainId": "0x1"
      },
      "additionalContracts": [],
      "isFixedGasLimit": false
    }
  ],
  "receipts": [
    {
      "status": "0x1",
      "cumulativeGasUsed": "0x639022",
      "logs": [
        {
          "address": "0x3908b45ce7395dba8a76bfbc16ee99e85b9e88a3",
          "topics": [
            "0x58ffae0baf944226215848ca67070a6dfb7d3693f5abd4a1a76285ea4230f152"
          ],
          "data": "0x0000000000000000000000006bb092525c504d39551eb3ac208d1c4423bfd13f0000000000000000000000000000000000000000000000000000000000000000",
          "blockHash": "0xb9a753367f39f970ba050878d4e1b3292645dfb1f88c5871d2b0ce7683d49359",
          "blockNumber": "0x15b6ea2",
          "transactionHash": "0xa41d00a63f472d824640c5335048a51f28cbde9513b19ea1a21dea518463cb54",
          "transactionIndex": "0x30",
          "logIndex": "0xd2",
          "removed": false
        }
      ],
      "logsBloom": "0x00000000000000000000000000000000000004000000000000000000000000000000000000000000000000040000000000000000000000000000000000000000000000000000000000000000010000000000000000000000000000000000000000000000000000000000000000000000000000000000000000000000000000000000000000000000020000000000000000000000000000000000000000000000000000000000000000000000000000000000000008000000000000000000000000000000000000000000000000000000000000000000000000000000000000000000000000000000000000000000000000000001000000000000000000000000",
      "type": "0x2",
      "transactionHash": "0xa41d00a63f472d824640c5335048a51f28cbde9513b19ea1a21dea518463cb54",
      "transactionIndex": "0x30",
      "blockHash": "0xb9a753367f39f970ba050878d4e1b3292645dfb1f88c5871d2b0ce7683d49359",
      "blockNumber": "0x15b6ea2",
      "gasUsed": "0x792a",
      "effectiveGasPrice": "0xb3b4e099",
      "from": "0x84dc6f8a9cb1e042a0e5a3b4a809c90beb9d3448",
      "to": "0x3908b45ce7395dba8a76bfbc16ee99e85b9e88a3",
      "contractAddress": null
    }
  ],
  "libraries": [],
  "pending": [],
  "returns": {},
  "timestamp": 1750708105537,
  "chain": 1,
  "commit": "9ad3d45"
}