{
  "transactions": [
    {
      "hash": "0x040d6527a8ecb28535357f9023fc17bc6d9a2effede09ecb715ad4ae8b025fd5",
      "transactionType": "CALL",
      "contractName": null,
      "contractAddress": "0x3908b45ce7395dba8a76bfbc16ee99e85b9e88a3",
      "function": "grantRole(bytes32,address)",
      "arguments": [
        "0x0000000000000000000000000000000000000000000000000000000000000000",
        "0xaF786e8cDD7E4390BD629bfDec8f090268FE2934"
      ],
      "transaction": {
        "from": "0x84dc6f8a9cb1e042a0e5a3b4a809c90beb9d3448",
        "to": "0x3908b45ce7395dba8a76bfbc16ee99e85b9e88a3",
        "gas": "0x12f81",
        "value": "0x0",
        "input": "0x2f2ff15d0000000000000000000000000000000000000000000000000000000000000000000000000000000000000000af786e8cdd7e4390bd629bfdec8f090268fe2934",
        "nonce": "0x25",
        "chainId": "0x1"
      },
      "additionalContracts": [],
      "isFixedGasLimit": false
    }
  ],
  "receipts": [
    {
      "status": "0x1",
      "cumulativeGasUsed": "0x650a43",
      "logs": [
        {
          "address": "0x3908b45ce7395dba8a76bfbc16ee99e85b9e88a3",
          "topics": [
            "0x2f8788117e7eff1d82e926ec794901d17c78024a50270940304540a733656f0d",
            "0x0000000000000000000000000000000000000000000000000000000000000000",
            "0x000000000000000000000000af786e8cdd7e4390bd629bfdec8f090268fe2934",
            "0x00000000000000000000000084dc6f8a9cb1e042a0e5a3b4a809c90beb9d3448"
          ],
          "data": "0x",
          "blockHash": "0x4baac77f941b9e1c715a76b8080b7883c14301d2f448d263980429b1267ba0c2",
          "blockNumber": "0x14c58ac",
          "transactionHash": "0x040d6527a8ecb28535357f9023fc17bc6d9a2effede09ecb715ad4ae8b025fd5",
          "transactionIndex": "0x75",
          "logIndex": "0xa2",
          "removed": false
        }
      ],
      "logsBloom": "0x00000004000000000000000000000000000004000000000000000000000000000000000000000000000000040000000000000000000000000000000000000000000000000000000000000000000000001000000000000000000000000000000000000000020000000000000000000800000000000000020000000000000000000000000000000000000000000000000000000000000000000000000000000000000000000000000000000000000000000000000008000000001000000000000000000000000000000000000000000000000000000000000100000000000020000008001000000000000000000000000000000001000000100000000000000000",
      "type": "0x2",
      "transactionHash": "0x040d6527a8ecb28535357f9023fc17bc6d9a2effede09ecb715ad4ae8b025fd5",
      "transactionIndex": "0x75",
      "blockHash": "0x4baac77f941b9e1c715a76b8080b7883c14301d2f448d263980429b1267ba0c2",
      "blockNumber": "0x14c58ac",
      "gasUsed": "0xdbbc",
      "effectiveGasPrice": "0x4e0c2928",
      "from": "0x84dc6f8a9cb1e042a0e5a3b4a809c90beb9d3448",
      "to": "0x3908b45ce7395dba8a76bfbc16ee99e85b9e88a3",
      "contractAddress": null
    }
  ],
  "libraries": [],
  "pending": [],
  "returns": {},
  "timestamp": 1738762866,
  "chain": 1,
  "commit": "bf90717"
}