{
  "transactions": [
    {
      "hash": "0xe4bf247241a90a51070ac32361711504f95154f6d8460e5fdb6014c34b22431e",
      "transactionType": "CALL",
      "contractName": null,
      "contractAddress": "0x3908b45ce7395dba8a76bfbc16ee99e85b9e88a3",
      "function": "mint(address,uint256)",
      "arguments": [
        "0xF5D46bDe4dC092aa637A7A04212Acb7aB030fa32",
        "20826000000000000000000000000"
      ],
      "transaction": {
        "from": "0x84dc6f8a9cb1e042a0e5a3b4a809c90beb9d3448",
        "to": "0x3908b45ce7395dba8a76bfbc16ee99e85b9e88a3",
        "gas": "0x1a6bb",
        "value": "0x0",
        "input": "0x40c10f19000000000000000000000000f5d46bde4dc092aa637a7a04212acb7ab030fa320000000000000000000000000000000000000000434add0a358b3b7b9a000000",
        "nonce": "0x1d",
        "chainId": "0x1"
      },
      "additionalContracts": [],
      "isFixedGasLimit": false
    },
    {
      "hash": "0xa4cc41c727f68aeed39742e10447bad161c052d6abfb54a581dfba00f13b5b0a",
      "transactionType": "CALL",
      "contractName": null,
      "contractAddress": "0x3908b45ce7395dba8a76bfbc16ee99e85b9e88a3",
      "function": "mint(address,uint256)",
      "arguments": [
        "0x311a14194664B0B4c58433C33626dF0b32F14372",
        "13884000000000000000000000000"
      ],
      "transaction": {
        "from": "0x84dc6f8a9cb1e042a0e5a3b4a809c90beb9d3448",
        "to": "0x3908b45ce7395dba8a76bfbc16ee99e85b9e88a3",
        "gas": "0x15de9",
        "value": "0x0",
        "input": "0x40c10f19000000000000000000000000311a14194664b0b4c58433c33626df0b32f1437200000000000000000000000000000000000000002cdc935c23b227a7bc000000",
        "nonce": "0x1e",
        "chainId": "0x1"
      },
      "additionalContracts": [],
      "isFixedGasLimit": false
    },
    {
      "hash": null,
      "transactionType": "CALL",
      "contractName": null,
      "contractAddress": "0x3908b45ce7395dba8a76bfbc16ee99e85b9e88a3",
      "function": "mint(address,uint256)",
      "arguments": [
        "0x214eB48EB73BB0d79BAB2B4fD4C406A6547cba14",
        "6942000000000000000000000000"
      ],
      "transaction": {
        "from": "0x84dc6f8a9cb1e042a0e5a3b4a809c90beb9d3448",
        "to": "0x3908b45ce7395dba8a76bfbc16ee99e85b9e88a3",
        "gas": "0x15de9",
        "value": "0x0",
        "input": "0x40c10f19000000000000000000000000214eb48eb73bb0d79bab2b4fd4c406a6547cba140000000000000000000000000000000000000000166e49ae11d913d3de000000",
        "nonce": "0x1f",
        "chainId": "0x1"
      },
      "additionalContracts": [],
      "isFixedGasLimit": false
    },
    {
      "hash": null,
      "transactionType": "CALL",
      "contractName": null,
      "contractAddress": "0x3908b45ce7395dba8a76bfbc16ee99e85b9e88a3",
      "function": "mint(address,uint256)",
      "arguments": [
        "0xb0B43A98Af1C88c755673A81913707638D261392",
        "13884000000000000000000000000"
      ],
      "transaction": {
        "from": "0x84dc6f8a9cb1e042a0e5a3b4a809c90beb9d3448",
        "to": "0x3908b45ce7395dba8a76bfbc16ee99e85b9e88a3",
        "gas": "0x15de9",
        "value": "0x0",
        "input": "0x40c10f19000000000000000000000000b0b43a98af1c88c755673a81913707638d26139200000000000000000000000000000000000000002cdc935c23b227a7bc000000",
        "nonce": "0x20",
        "chainId": "0x1"
      },
      "additionalContracts": [],
      "isFixedGasLimit": false
    },
    {
      "hash": null,
      "transactionType": "CALL",
      "contractName": null,
      "contractAddress": "0x3908b45ce7395dba8a76bfbc16ee99e85b9e88a3",
      "function": "mint(address,uint256)",
      "arguments": [
        "0xCa628438886dcf4854cE6C6Db94e4B9fB47EE07b",
        "13884000000000000000000000000"
      ],
      "transaction": {
        "from": "0x84dc6f8a9cb1e042a0e5a3b4a809c90beb9d3448",
        "to": "0x3908b45ce7395dba8a76bfbc16ee99e85b9e88a3",
        "gas": "0x15de9",
        "value": "0x0",
        "input": "0x40c10f19000000000000000000000000ca628438886dcf4854ce6c6db94e4b9fb47ee07b00000000000000000000000000000000000000002cdc935c23b227a7bc000000",
        "nonce": "0x21",
        "chainId": "0x1"
      },
      "additionalContracts": [],
      "isFixedGasLimit": false
    },
    {
      "hash": null,
      "transactionType": "CALL",
      "contractName": null,
      "contractAddress": "0x3908b45ce7395dba8a76bfbc16ee99e85b9e88a3",
      "function": "mint(address,uint256)",
      "arguments": [
        "0xdF80e38699bb963a91c5F04F83378A597995932a",
        "67337400000000000000000000000"
      ],
      "transaction": {
        "from": "0x84dc6f8a9cb1e042a0e5a3b4a809c90beb9d3448",
        "to": "0x3908b45ce7395dba8a76bfbc16ee99e85b9e88a3",
        "gas": "0x15de9",
        "value": "0x0",
        "input": "0x40c10f19000000000000000000000000df80e38699bb963a91c5f04f83378a597995932a0000000000000000000000000000000000000000d994311879ecd9ed83000000",
        "nonce": "0x22",
        "chainId": "0x1"
      },
      "additionalContracts": [],
      "isFixedGasLimit": false
    },
    {
      "hash": null,
      "transactionType": "CALL",
      "contractName": null,
      "contractAddress": "0x3908b45ce7395dba8a76bfbc16ee99e85b9e88a3",
      "function": "mint(address,uint256)",
      "arguments": [
        "0x7c837A5b15439725AdA552b7e36d642B60F119a1",
        "2082600000000000000000000000"
      ],
      "transaction": {
        "from": "0x84dc6f8a9cb1e042a0e5a3b4a809c90beb9d3448",
        "to": "0x3908b45ce7395dba8a76bfbc16ee99e85b9e88a3",
        "gas": "0x15de9",
        "value": "0x0",
        "input": "0x40c10f190000000000000000000000007c837a5b15439725ada552b7e36d642b60f119a1000000000000000000000000000000000000000006baafb4388dec5929000000",
        "nonce": "0x23",
        "chainId": "0x1"
      },
      "additionalContracts": [],
      "isFixedGasLimit": false
    }
  ],
  "receipts": [],
  "libraries": [],
  "pending": [
    "0xe4bf247241a90a51070ac32361711504f95154f6d8460e5fdb6014c34b22431e",
    "0xa4cc41c727f68aeed39742e10447bad161c052d6abfb54a581dfba00f13b5b0a"
  ],
  "returns": {},
  "timestamp": 1737549871,
  "chain": 1,
  "commit": "bf90717"
}