{
  "transactions": [
    {
      "hash": "0x270712a948cc792d7a420cf92c74b9fc0f7f3033662d3be7c5c16d59666800c2",
      "transactionType": "CALL",
      "contractName": null,
      "contractAddress": "0x06b5c84c6fb16b9c043ccbb5399ac267f38e9e19",
      "function": "setTier(address,uint256)",
      "arguments": [
        "0x049E035Fb280b1df29e1c9BaE586F8E2E03311E1",
        "1"
      ],
      "transaction": {
        "from": "0x84dc6f8a9cb1e042a0e5a3b4a809c90beb9d3448",
        "to": "0x06b5c84c6fb16b9c043ccbb5399ac267f38e9e19",
        "gas": "0xbcf1",
        "value": "0x0",
        "input": "0xa914adce000000000000000000000000049e035fb280b1df29e1c9bae586f8e2e03311e10000000000000000000000000000000000000000000000000000000000000001",
        "nonce": "0x50",
        "chainId": "0x1"
      },
      "additionalContracts": [],
      "isFixedGasLimit": false
    },
    {
      "hash": "0x3fa93bb93c384eca9d1154ff7753f73dfc98371e747bf6066fb479ce156cdfda",
      "transactionType": "CALL",
      "contractName": null,
      "contractAddress": "0x06b5c84c6fb16b9c043ccbb5399ac267f38e9e19",
      "function": "setTier(address,uint256)",
      "arguments": [
        "0xE63cE53A4Ed7B5180311143AA3FE9131b4E0AB88",
        "1"
      ],
      "transaction": {
        "from": "0x84dc6f8a9cb1e042a0e5a3b4a809c90beb9d3448",
        "to": "0x06b5c84c6fb16b9c043ccbb5399ac267f38e9e19",
        "gas": "0xbcf1",
        "value": "0x0",
        "input": "0xa914adce000000000000000000000000e63ce53a4ed7b5180311143aa3fe9131b4e0ab880000000000000000000000000000000000000000000000000000000000000001",
        "nonce": "0x51",
        "chainId": "0x1"
      },
      "additionalContracts": [],
      "isFixedGasLimit": false
    },
    {
      "hash": "0xaf3f64d826f31160bccfa28e623a05073e709466ccf34d456e762de4b32d65f7",
      "transactionType": "CALL",
      "contractName": null,
      "contractAddress": "0x06b5c84c6fb16b9c043ccbb5399ac267f38e9e19",
      "function": "setTier(address,uint256)",
      "arguments": [
        "0xBD34Dc3FBb661612AAbCADaf758Caa6E22787297",
        "1"
      ],
      "transaction": {
        "from": "0x84dc6f8a9cb1e042a0e5a3b4a809c90beb9d3448",
        "to": "0x06b5c84c6fb16b9c043ccbb5399ac267f38e9e19",
        "gas": "0xbcf1",
        "value": "0x0",
        "input": "0xa914adce000000000000000000000000bd34dc3fbb661612aabcadaf758caa6e227872970000000000000000000000000000000000000000000000000000000000000001",
        "nonce": "0x52",
        "chainId": "0x1"
      },
      "additionalContracts": [],
      "isFixedGasLimit": false
    },
    {
      "hash": null,
      "transactionType": "CALL",
      "contractName": null,
      "contractAddress": "0x06b5c84c6fb16b9c043ccbb5399ac267f38e9e19",
      "function": "setTier(address,uint256)",
      "arguments": [
        "0x60C7d0B2cD22e9D20BE93f9EFFBabF15fd599936",
        "1"
      ],
      "transaction": {
        "from": "0x84dc6f8a9cb1e042a0e5a3b4a809c90beb9d3448",
        "to": "0x06b5c84c6fb16b9c043ccbb5399ac267f38e9e19",
        "gas": "0xbcf1",
        "value": "0x0",
        "input": "0xa914adce00000000000000000000000060c7d0b2cd22e9d20be93f9effbabf15fd5999360000000000000000000000000000000000000000000000000000000000000001",
        "nonce": "0x53",
        "chainId": "0x1"
      },
      "additionalContracts": [],
      "isFixedGasLimit": false
    },
    {
      "hash": null,
      "transactionType": "CALL",
      "contractName": null,
      "contractAddress": "0x06b5c84c6fb16b9c043ccbb5399ac267f38e9e19",
      "function": "setTier(address,uint256)",
      "arguments": [
        "0x6068efCd7DEdDED2A8444cbb218ffE71fa022D08",
        "1"
      ],
      "transaction": {
        "from": "0x84dc6f8a9cb1e042a0e5a3b4a809c90beb9d3448",
        "to": "0x06b5c84c6fb16b9c043ccbb5399ac267f38e9e19",
        "gas": "0x11dcf",
        "value": "0x0",
        "input": "0xa914adce0000000000000000000000006068efcd7dedded2a8444cbb218ffe71fa022d080000000000000000000000000000000000000000000000000000000000000001",
        "nonce": "0x54",
        "chainId": "0x1"
      },
      "additionalContracts": [],
      "isFixedGasLimit": false
    },
    {
      "hash": null,
      "transactionType": "CALL",
      "contractName": null,
      "contractAddress": "0x06b5c84c6fb16b9c043ccbb5399ac267f38e9e19",
      "function": "setTier(address,uint256)",
      "arguments": [
        "0xF52eB9b90C0CE6B037381aEa62BfA7A1B5519D31",
        "1"
      ],
      "transaction": {
        "from": "0x84dc6f8a9cb1e042a0e5a3b4a809c90beb9d3448",
        "to": "0x06b5c84c6fb16b9c043ccbb5399ac267f38e9e19",
        "gas": "0x11dcf",
        "value": "0x0",
        "input": "0xa914adce000000000000000000000000f52eb9b90c0ce6b037381aea62bfa7a1b5519d310000000000000000000000000000000000000000000000000000000000000001",
        "nonce": "0x55",
        "chainId": "0x1"
      },
      "additionalContracts": [],
      "isFixedGasLimit": false
    },
    {
      "hash": null,
      "transactionType": "CALL",
      "contractName": null,
      "contractAddress": "0x06b5c84c6fb16b9c043ccbb5399ac267f38e9e19",
      "function": "setTier(address,uint256)",
      "arguments": [
        "0x128c21DFE98E7478e3cc6513AEF959BBD266Ed0F",
        "1"
      ],
      "transaction": {
        "from": "0x84dc6f8a9cb1e042a0e5a3b4a809c90beb9d3448",
        "to": "0x06b5c84c6fb16b9c043ccbb5399ac267f38e9e19",
        "gas": "0x11dcf",
        "value": "0x0",
        "input": "0xa914adce000000000000000000000000128c21dfe98e7478e3cc6513aef959bbd266ed0f0000000000000000000000000000000000000000000000000000000000000001",
        "nonce": "0x56",
        "chainId": "0x1"
      },
      "additionalContracts": [],
      "isFixedGasLimit": false
    },
    {
      "hash": null,
      "transactionType": "CALL",
      "contractName": null,
      "contractAddress": "0x06b5c84c6fb16b9c043ccbb5399ac267f38e9e19",
      "function": "setTier(address,uint256)",
      "arguments": [
        "0x255252421d42949843e6bdB40065d39c110c8191",
        "1"
      ],
      "transaction": {
        "from": "0x84dc6f8a9cb1e042a0e5a3b4a809c90beb9d3448",
        "to": "0x06b5c84c6fb16b9c043ccbb5399ac267f38e9e19",
        "gas": "0x12e8f",
        "value": "0x0",
        "input": "0xa914adce000000000000000000000000255252421d42949843e6bdb40065d39c110c81910000000000000000000000000000000000000000000000000000000000000001",
        "nonce": "0x57",
        "chainId": "0x1"
      },
      "additionalContracts": [],
      "isFixedGasLimit": false
    },
    {
      "hash": null,
      "transactionType": "CALL",
      "contractName": null,
      "contractAddress": "0x06b5c84c6fb16b9c043ccbb5399ac267f38e9e19",
      "function": "setTier(address,uint256)",
      "arguments": [
        "0xC5DCb0A22551FbA93e260028813F0eef25bFfeA6",
        "1"
      ],
      "transaction": {
        "from": "0x84dc6f8a9cb1e042a0e5a3b4a809c90beb9d3448",
        "to": "0x06b5c84c6fb16b9c043ccbb5399ac267f38e9e19",
        "gas": "0x12e8f",
        "value": "0x0",
        "input": "0xa914adce000000000000000000000000c5dcb0a22551fba93e260028813f0eef25bffea60000000000000000000000000000000000000000000000000000000000000001",
        "nonce": "0x58",
        "chainId": "0x1"
      },
      "additionalContracts": [],
      "isFixedGasLimit": false
    },
    {
      "hash": null,
      "transactionType": "CALL",
      "contractName": null,
      "contractAddress": "0x06b5c84c6fb16b9c043ccbb5399ac267f38e9e19",
      "function": "setTier(address,uint256)",
      "arguments": [
        "0xEaF85B68ce6AC308946580b907C4f84d0Abb07ee",
        "1"
      ],
      "transaction": {
        "from": "0x84dc6f8a9cb1e042a0e5a3b4a809c90beb9d3448",
        "to": "0x06b5c84c6fb16b9c043ccbb5399ac267f38e9e19",
        "gas": "0x11dcf",
        "value": "0x0",
        "input": "0xa914adce000000000000000000000000eaf85b68ce6ac308946580b907c4f84d0abb07ee0000000000000000000000000000000000000000000000000000000000000001",
        "nonce": "0x59",
        "chainId": "0x1"
      },
      "additionalContracts": [],
      "isFixedGasLimit": false
    },
    {
      "hash": null,
      "transactionType": "CALL",
      "contractName": null,
      "contractAddress": "0x06b5c84c6fb16b9c043ccbb5399ac267f38e9e19",
      "function": "setTier(address,uint256)",
      "arguments": [
        "0x63d97917852e12F1591A39D20ba8a2547169B298",
        "1"
      ],
      "transaction": {
        "from": "0x84dc6f8a9cb1e042a0e5a3b4a809c90beb9d3448",
        "to": "0x06b5c84c6fb16b9c043ccbb5399ac267f38e9e19",
        "gas": "0x11dcf",
        "value": "0x0",
        "input": "0xa914adce00000000000000000000000063d97917852e12f1591a39d20ba8a2547169b2980000000000000000000000000000000000000000000000000000000000000001",
        "nonce": "0x5a",
        "chainId": "0x1"
      },
      "additionalContracts": [],
      "isFixedGasLimit": false
    },
    {
      "hash": null,
      "transactionType": "CALL",
      "contractName": null,
      "contractAddress": "0x06b5c84c6fb16b9c043ccbb5399ac267f38e9e19",
      "function": "setTier(address,uint256)",
      "arguments": [
        "0x8e80410Ae2c5a394D1a81364fB932dF86Eb4992d",
        "1"
      ],
      "transaction": {
        "from": "0x84dc6f8a9cb1e042a0e5a3b4a809c90beb9d3448",
        "to": "0x06b5c84c6fb16b9c043ccbb5399ac267f38e9e19",
        "gas": "0x11dcf",
        "value": "0x0",
        "input": "0xa914adce0000000000000000000000008e80410ae2c5a394d1a81364fb932df86eb4992d0000000000000000000000000000000000000000000000000000000000000001",
        "nonce": "0x5b",
        "chainId": "0x1"
      },
      "additionalContracts": [],
      "isFixedGasLimit": false
    },
    {
      "hash": null,
      "transactionType": "CALL",
      "contractName": null,
      "contractAddress": "0x06b5c84c6fb16b9c043ccbb5399ac267f38e9e19",
      "function": "setTier(address,uint256)",
      "arguments": [
        "0x88C3f21CeCd5846D55d9A82f5A40FBd88E2fC5a5",
        "1"
      ],
      "transaction": {
        "from": "0x84dc6f8a9cb1e042a0e5a3b4a809c90beb9d3448",
        "to": "0x06b5c84c6fb16b9c043ccbb5399ac267f38e9e19",
        "gas": "0x11dcf",
        "value": "0x0",
        "input": "0xa914adce00000000000000000000000088c3f21cecd5846d55d9a82f5a40fbd88e2fc5a50000000000000000000000000000000000000000000000000000000000000001",
        "nonce": "0x5c",
        "chainId": "0x1"
      },
      "additionalContracts": [],
      "isFixedGasLimit": false
    },
    {
      "hash": null,
      "transactionType": "CALL",
      "contractName": null,
      "contractAddress": "0x06b5c84c6fb16b9c043ccbb5399ac267f38e9e19",
      "function": "setTier(address,uint256)",
      "arguments": [
        "0x49e5c7645EaF21A531D933dE365ABDB01Ba3A2f6",
        "1"
      ],
      "transaction": {
        "from": "0x84dc6f8a9cb1e042a0e5a3b4a809c90beb9d3448",
        "to": "0x06b5c84c6fb16b9c043ccbb5399ac267f38e9e19",
        "gas": "0x11dcf",
        "value": "0x0",
        "input": "0xa914adce00000000000000000000000049e5c7645eaf21a531d933de365abdb01ba3a2f60000000000000000000000000000000000000000000000000000000000000001",
        "nonce": "0x5d",
        "chainId": "0x1"
      },
      "additionalContracts": [],
      "isFixedGasLimit": false
    },
    {
      "hash": null,
      "transactionType": "CALL",
      "contractName": null,
      "contractAddress": "0x06b5c84c6fb16b9c043ccbb5399ac267f38e9e19",
      "function": "setTier(address,uint256)",
      "arguments": [
        "0xACce9487EcF6F32325ad612df0D1f1288653905A",
        "1"
      ],
      "transaction": {
        "from": "0x84dc6f8a9cb1e042a0e5a3b4a809c90beb9d3448",
        "to": "0x06b5c84c6fb16b9c043ccbb5399ac267f38e9e19",
        "gas": "0x11dcf",
        "value": "0x0",
        "input": "0xa914adce000000000000000000000000acce9487ecf6f32325ad612df0d1f1288653905a0000000000000000000000000000000000000000000000000000000000000001",
        "nonce": "0x5e",
        "chainId": "0x1"
      },
      "additionalContracts": [],
      "isFixedGasLimit": false
    },
    {
      "hash": null,
      "transactionType": "CALL",
      "contractName": null,
      "contractAddress": "0x06b5c84c6fb16b9c043ccbb5399ac267f38e9e19",
      "function": "setTier(address,uint256)",
      "arguments": [
        "0x84240C190FB0761527bA3A490BFe2e002413CDe4",
        "1"
      ],
      "transaction": {
        "from": "0x84dc6f8a9cb1e042a0e5a3b4a809c90beb9d3448",
        "to": "0x06b5c84c6fb16b9c043ccbb5399ac267f38e9e19",
        "gas": "0x12e8f",
        "value": "0x0",
        "input": "0xa914adce00000000000000000000000084240c190fb0761527ba3a490bfe2e002413cde40000000000000000000000000000000000000000000000000000000000000001",
        "nonce": "0x5f",
        "chainId": "0x1"
      },
      "additionalContracts": [],
      "isFixedGasLimit": false
    },
    {
      "hash": null,
      "transactionType": "CALL",
      "contractName": null,
      "contractAddress": "0x06b5c84c6fb16b9c043ccbb5399ac267f38e9e19",
      "function": "setTier(address,uint256)",
      "arguments": [
        "0xeE6343ED1b521440A3c952FCAAA1E487a0403DbC",
        "1"
      ],
      "transaction": {
        "from": "0x84dc6f8a9cb1e042a0e5a3b4a809c90beb9d3448",
        "to": "0x06b5c84c6fb16b9c043ccbb5399ac267f38e9e19",
        "gas": "0x11dcf",
        "value": "0x0",
        "input": "0xa914adce000000000000000000000000ee6343ed1b521440a3c952fcaaa1e487a0403dbc0000000000000000000000000000000000000000000000000000000000000001",
        "nonce": "0x60",
        "chainId": "0x1"
      },
      "additionalContracts": [],
      "isFixedGasLimit": false
    },
    {
      "hash": null,
      "transactionType": "CALL",
      "contractName": null,
      "contractAddress": "0x06b5c84c6fb16b9c043ccbb5399ac267f38e9e19",
      "function": "setTier(address,uint256)",
      "arguments": [
        "0x147EC80822AFD4C6bC13aC116Ce3ae886099AB47",
        "1"
      ],
      "transaction": {
        "from": "0x84dc6f8a9cb1e042a0e5a3b4a809c90beb9d3448",
        "to": "0x06b5c84c6fb16b9c043ccbb5399ac267f38e9e19",
        "gas": "0x11dcf",
        "value": "0x0",
        "input": "0xa914adce000000000000000000000000147ec80822afd4c6bc13ac116ce3ae886099ab470000000000000000000000000000000000000000000000000000000000000001",
        "nonce": "0x61",
        "chainId": "0x1"
      },
      "additionalContracts": [],
      "isFixedGasLimit": false
    }
  ],
  "receipts": [],
  "libraries": [],
  "pending": [
    "0x270712a948cc792d7a420cf92c74b9fc0f7f3033662d3be7c5c16d59666800c2",
    "0x3fa93bb93c384eca9d1154ff7753f73dfc98371e747bf6066fb479ce156cdfda",
    "0xaf3f64d826f31160bccfa28e623a05073e709466ccf34d456e762de4b32d65f7"
  ],
  "returns": {},
  "timestamp": 1739273155,
  "chain": 1,
  "commit": "bf90717"
}