{
  "transactions": [
    {
      "hash": "0x0378df1d7924afcc6d5f1b0b9275f392487895bb3bd5c5d4527140aacca31671",
      "transactionType": "CALL",
      "contractName": null,
      "contractAddress": "0x3908b45ce7395dba8a76bfbc16ee99e85b9e88a3",
      "function": "grantRole(bytes32,address)",
      "arguments": [
        "0x0000000000000000000000000000000000000000000000000000000000000000",
        "0x71B83d53FED1154901C58B8A7ff9569Ac1D45c25"
      ],
      "transaction": {
        "from": "0x84dc6f8a9cb1e042a0e5a3b4a809c90beb9d3448",
        "to": "0x3908b45ce7395dba8a76bfbc16ee99e85b9e88a3",
        "gas": "0xb786",
        "value": "0x0",
        "input": "0x2f2ff15d000000000000000000000000000000000000000000000000000000000000000000000000000000000000000071b83d53fed1154901c58b8a7ff9569ac1d45c25",
        "nonce": "0x61",
        "chainId": "0x1"
      },
      "additionalContracts": [],
      "isFixedGasLimit": false
    }
  ],
  "receipts": [
    {
      "status": "0x1",
      "cumulativeGasUsed": "0x802347",
      "logs": [],
      "logsBloom": "0x00000000000000000000000000000000000000000000000000000000000000000000000000000000000000000000000000000000000000000000000000000000000000000000000000000000000000000000000000000000000000000000000000000000000000000000000000000000000000000000000000000000000000000000000000000000000000000000000000000000000000000000000000000000000000000000000000000000000000000000000000000000000000000000000000000000000000000000000000000000000000000000000000000000000000000000000000000000000000000000000000000000000000000000000000000000",
      "type": "0x2",
      "transactionHash": "0x0378df1d7924afcc6d5f1b0b9275f392487895bb3bd5c5d4527140aacca31671",
      "transactionIndex": "0x5f",
      "blockHash": "0x35ef910688101cac627cceca887991322e098f2e841faee47c8b017eea5e8c0e",
      "blockNumber": "0x14d34b5",
      "gasUsed": "0x84df",
      "effectiveGasPrice": "0x40637bc2",
      "from": "0x84dc6f8a9cb1e042a0e5a3b4a809c90beb9d3448",
      "to": "0x3908b45ce7395dba8a76bfbc16ee99e85b9e88a3",
      "contractAddress": null
    }
  ],
  "libraries": [],
  "pending": [],
  "returns": {},
  "timestamp": 1739442685,
  "chain": 1,
  "commit": "bf90717"
}