{
  "transactions": [
    {
      "hash": "0x8205425fda67b684943e5741211d1a8a73ea252c4b147071dacdc7876d35133b",
      "transactionType": "CALL",
      "contractName": null,
      "contractAddress": "0x06b5c84c6fb16b9c043ccbb5399ac267f38e9e19",
      "function": "setTier(address,uint256)",
      "arguments": [
        "0x3068722291E90e7251D37b9b5Bc1E3D303885bb7",
        "1"
      ],
      "transaction": {
        "from": "0x84dc6f8a9cb1e042a0e5a3b4a809c90beb9d3448",
        "to": "0x06b5c84c6fb16b9c043ccbb5399ac267f38e9e19",
        "gas": "0x11dcf",
        "value": "0x0",
        "input": "0xa914adce0000000000000000000000003068722291e90e7251d37b9b5bc1e3d303885bb70000000000000000000000000000000000000000000000000000000000000001",
        "nonce": "0x69",
        "chainId": "0x1"
      },
      "additionalContracts": [],
      "isFixedGasLimit": false
    }
  ],
  "receipts": [
    {
      "status": "0x1",
      "cumulativeGasUsed": "0xddb960",
      "logs": [
        {
          "address": "0x06b5c84c6fb16b9c043ccbb5399ac267f38e9e19",
          "topics": [
            "0x58ffae0baf944226215848ca67070a6dfb7d3693f5abd4a1a76285ea4230f152"
          ],
          "data": "0x0000000000000000000000003068722291e90e7251d37b9b5bc1e3d303885bb70000000000000000000000000000000000000000000000000000000000000001",
          "blockHash": "0x3cd7fc886473ecd4d222a03da345b14a8b02dd6dd34d2bdb73aef9296d6667f9",
          "blockNumber": "0x15b6f8d",
          "transactionHash": "0x8205425fda67b684943e5741211d1a8a73ea252c4b147071dacdc7876d35133b",
          "transactionIndex": "0xd8",
          "logIndex": "0x160",
          "removed": false
        }
      ],
      "logsBloom": "0x00000000000000000000000000000000000000000000000000000000000000000000020000000000000000000000000000000000000000000000000000000000000000000000000000000000010000000000000000000000000000000000000000000000000000000000000000000000000000000000040000000000000000000000000000000000020000000000000000100000000000000000000000000000000000000000000000000000000000000000000008000000000000000000000000000000000000000000000000000000000000000000000000000000000000000000000000000000000000000000000000000000000000000000000000000000",
      "type": "0x2",
      "transactionHash": "0x8205425fda67b684943e5741211d1a8a73ea252c4b147071dacdc7876d35133b",
      "transactionIndex": "0xd8",
      "blockHash": "0x3cd7fc886473ecd4d222a03da345b14a8b02dd6dd34d2bdb73aef9296d6667f9",
      "blockNumber": "0x15b6f8d",
      "gasUsed": "0xceed",
      "effectiveGasPrice": "0x2684f8075",
      "from": "0x84dc6f8a9cb1e042a0e5a3b4a809c90beb9d3448",
      "to": "0x06b5c84c6fb16b9c043ccbb5399ac267f38e9e19",
      "contractAddress": null
    }
  ],
  "libraries": [],
  "pending": [],
  "returns": {},
  "timestamp": 1750710951073,
  "chain": 1,
  "commit": "9ad3d45"
}