{
  "transactions": [
    {
      "hash": "0x5d284e640f9707431b5cd0b4e25293cd4d3605c3aa8a3e4426c912fab11202e4",
      "transactionType": "CALL",
      "contractName": null,
      "contractAddress": "0x06b5c84c6fb16b9c043ccbb5399ac267f38e9e19",
      "function": "grantRole(bytes32,address)",
      "arguments": [
        "0x0000000000000000000000000000000000000000000000000000000000000000",
        "0x71B83d53FED1154901C58B8A7ff9569Ac1D45c25"
      ],
      "transaction": {
        "from": "0x84dc6f8a9cb1e042a0e5a3b4a809c90beb9d3448",
        "to": "0x06b5c84c6fb16b9c043ccbb5399ac267f38e9e19",
        "gas": "0x12f81",
        "value": "0x0",
        "input": "0x2f2ff15d000000000000000000000000000000000000000000000000000000000000000000000000000000000000000071b83d53fed1154901c58b8a7ff9569ac1d45c25",
        "nonce": "0x62",
        "chainId": "0x1"
      },
      "additionalContracts": [],
      "isFixedGasLimit": false
    }
  ],
  "receipts": [
    {
      "status": "0x1",
      "cumulativeGasUsed": "0x1845edf",
      "logs": [
        {
          "address": "0x06b5c84c6fb16b9c043ccbb5399ac267f38e9e19",
          "topics": [
            "0x2f8788117e7eff1d82e926ec794901d17c78024a50270940304540a733656f0d",
            "0x0000000000000000000000000000000000000000000000000000000000000000",
            "0x00000000000000000000000071b83d53fed1154901c58b8a7ff9569ac1d45c25",
            "0x00000000000000000000000084dc6f8a9cb1e042a0e5a3b4a809c90beb9d3448"
          ],
          "data": "0x",
          "blockHash": "0x2b8cfc4ad6ae179635f7b79f0bc6f0c58f26d2564048cc458ae3856245ceaf18",
          "blockNumber": "0x14d3545",
          "transactionHash": "0x5d284e640f9707431b5cd0b4e25293cd4d3605c3aa8a3e4426c912fab11202e4",
          "transactionIndex": "0x135",
          "logIndex": "0x205",
          "removed": false
        }
      ],
      "logsBloom": "0x00000004000000000000000000000000000800000000000000000000000000000000020000000000000000000000000000000000000000000000000000000000000000000000000000000000000000001000000000000000000000000000000000000000020000000000000000000800000000000000040000000000000000000000000000000000000000000000000000100000000000000000000000000000000000000000000000000000000000000000000008000000001000000000000000000000000000000000000000000000000000000000000100000000000020000000000000000000000000000000000001000100000000100000000000000000",
      "type": "0x2",
      "transactionHash": "0x5d284e640f9707431b5cd0b4e25293cd4d3605c3aa8a3e4426c912fab11202e4",
      "transactionIndex": "0x135",
      "blockHash": "0x2b8cfc4ad6ae179635f7b79f0bc6f0c58f26d2564048cc458ae3856245ceaf18",
      "blockNumber": "0x14d3545",
      "gasUsed": "0xdbbc",
      "effectiveGasPrice": "0x359628d8",
      "from": "0x84dc6f8a9cb1e042a0e5a3b4a809c90beb9d3448",
      "to": "0x06b5c84c6fb16b9c043ccbb5399ac267f38e9e19",
      "contractAddress": null
    }
  ],
  "libraries": [],
  "pending": [],
  "returns": {},
  "timestamp": 1739444421,
  "chain": 1,
  "commit": "bf90717"
}