{
  "transactions": [
    {
      "hash": "0x502a1ba0799a012999ccec78f923e753bbc48bfffbbfaa9df6c27ad6ef3f9756",
      "transactionType": "CALL",
      "contractName": null,
      "contractAddress": "0x3908b45ce7395dba8a76bfbc16ee99e85b9e88a3",
      "function": "setExchangeWhitelist(address,bool)",
      "arguments": [
        "0x66a9893cC07D91D95644AEDD05D03f95e1dBA8Af",
        "true"
      ],
      "transaction": {
        "from": "0x84dc6f8a9cb1e042a0e5a3b4a809c90beb9d3448",
        "to": "0x3908b45ce7395dba8a76bfbc16ee99e85b9e88a3",
        "gas": "0x11dbc",
        "value": "0x0",
        "input": "0x08b11bd500000000000000000000000066a9893cc07d91d95644aedd05d03f95e1dba8af0000000000000000000000000000000000000000000000000000000000000001",
        "nonce": "0x64",
        "chainId": "0x1"
      },
      "additionalContracts": [],
      "isFixedGasLimit": false
    }
  ],
  "receipts": [
    {
      "status": "0x1",
      "cumulativeGasUsed": "0x792cd1",
      "logs": [
        {
          "address": "0x3908b45ce7395dba8a76bfbc16ee99e85b9e88a3",
          "topics": [
            "0x857f6dc03578bcc97a1e67e291169d7ab5809cc1370019191b1908c9ac917485"
          ],
          "data": "0x00000000000000000000000066a9893cc07d91d95644aedd05d03f95e1dba8af0000000000000000000000000000000000000000000000000000000000000001",
          "blockHash": "0x41c73d4b06c654ba1edd7dc0170ca48377215987fad3a898450543dabbc7d8b6",
          "blockNumber": "0x15b6e9b",
          "transactionHash": "0x502a1ba0799a012999ccec78f923e753bbc48bfffbbfaa9df6c27ad6ef3f9756",
          "transactionIndex": "0x35",
          "logIndex": "0xfc",
          "removed": false
        }
      ],
      "logsBloom": "0x00000000000000400000000000000000000004000000000000000000000000000000000000200000000000040000000000000000000000000000000000000000000000000000000000000000000000000000000000000000000000000000000000000000000000000000000000000000000000000000000000000000000000000000000000000000000000000000000000000000000000000000000000000000000000000000000000000000000000004000000000000000000000000000000000000000000000000000000000000000000000000000000000000000000000000000000000000000000000000000000000000001000000000000000000000000",
      "type": "0x2",
      "transactionHash": "0x502a1ba0799a012999ccec78f923e753bbc48bfffbbfaa9df6c27ad6ef3f9756",
      "transactionIndex": "0x35",
      "blockHash": "0x41c73d4b06c654ba1edd7dc0170ca48377215987fad3a898450543dabbc7d8b6",
      "blockNumber": "0x15b6e9b",
      "gasUsed": "0xcedf",
      "effectiveGasPrice": "0xb0ebf7ae",
      "from": "0x84dc6f8a9cb1e042a0e5a3b4a809c90beb9d3448",
      "to": "0x3908b45ce7395dba8a76bfbc16ee99e85b9e88a3",
      "contractAddress": null
    }
  ],
  "libraries": [],
  "pending": [],
  "returns": {},
  "timestamp": 1750708021996,
  "chain": 1,
  "commit": "9ad3d45"
}