{
  "transactions": [
    {
      "hash": "0xa8cc0ded38688867b5b4a055c8a8838d8c8044e8973689c760823f2a2bcf4d1b",
      "transactionType": "CALL",
      "contractName": null,
      "contractAddress": "0x030c5ff9aafd365fb2fe6215be614a8ee765eafd",
      "function": "mint(address,uint256)",
      "arguments": [
        "0x250e6E64276D5e9a1cA0B6C5B2B11c5139CD1Fc7",
        "67337400000000000000000000000"
      ],
      "transaction": {
        "from": "0x84dc6f8a9cb1e042a0e5a3b4a809c90beb9d3448",
        "to": "0x030c5ff9aafd365fb2fe6215be614a8ee765eafd",
        "gas": "0x13dd5",
        "value": "0x0",
        "input": "0x40c10f19000000000000000000000000250e6e64276d5e9a1ca0b6c5b2b11c5139cd1fc70000000000000000000000000000000000000000d994311879ecd9ed83000000",
        "nonce": "0xa",
        "chainId": "0x4268"
      },
      "additionalContracts": [],
      "isFixedGasLimit": false
    },
    {
      "hash": "0x358ab6e282347b0e8b23ce9fbb691b5b5af50d5c5e603cc15f64ff16bb9202d6",
      "transactionType": "CALL",
      "contractName": null,
      "contractAddress": "0x030c5ff9aafd365fb2fe6215be614a8ee765eafd",
      "function": "setTier(address,uint256)",
      "arguments": [
        "0x250e6E64276D5e9a1cA0B6C5B2B11c5139CD1Fc7",
        "1"
      ],
      "transaction": {
        "from": "0x84dc6f8a9cb1e042a0e5a3b4a809c90beb9d3448",
        "to": "0x030c5ff9aafd365fb2fe6215be614a8ee765eafd",
        "gas": "0x12dec",
        "value": "0x0",
        "input": "0xa914adce000000000000000000000000250e6e64276d5e9a1ca0b6c5b2b11c5139cd1fc70000000000000000000000000000000000000000000000000000000000000001",
        "nonce": "0xb",
        "chainId": "0x4268"
      },
      "additionalContracts": [],
      "isFixedGasLimit": false
    }
  ],
  "receipts": [
    {
      "status": "0x1",
      "cumulativeGasUsed": "0x99e95f",
      "logs": [
        {
          "address": "0x030c5ff9aafd365fb2fe6215be614a8ee765eafd",
          "topics": [
            "0xddf252ad1be2c89b69c2b068fc378daa952ba7f163c4a11628f55a4df523b3ef",
            "0x0000000000000000000000000000000000000000000000000000000000000000",
            "0x000000000000000000000000250e6e64276d5e9a1ca0b6c5b2b11c5139cd1fc7"
          ],
          "data": "0x0000000000000000000000000000000000000000d994311879ecd9ed83000000",
          "blockHash": "0x30117d39c920ca1d6a210a3eaff163e2595e958ff387d22d1bcb8909ae49ba38",
          "blockNumber": "0x2b4c11",
          "transactionHash": "0xa8cc0ded38688867b5b4a055c8a8838d8c8044e8973689c760823f2a2bcf4d1b",
          "transactionIndex": "0x43",
          "logIndex": "0x90",
          "removed": false
        }
      ],
      "logsBloom": "0x00000000000000000000000000000000000000000000000000000000000000000000000000000000000000000000000000000000000000000000000000000000000000020000000000000008000000000000000000000000000000000000000000000000020000000000001000000800000000000000000000000010000000000000000000000000000000000000000000000000000000000000000000000000000000000100000000100000000000000000100000000000000000000000000000000002000000000002000000000000000000000000000000000000000020000000000000000000000000000000000000000000000000000000000000000000",
      "type": "0x2",
      "transactionHash": "0xa8cc0ded38688867b5b4a055c8a8838d8c8044e8973689c760823f2a2bcf4d1b",
      "transactionIndex": "0x43",
      "blockHash": "0x30117d39c920ca1d6a210a3eaff163e2595e958ff387d22d1bcb8909ae49ba38",
      "blockNumber": "0x2b4c11",
      "gasUsed": "0xe61c",
      "effectiveGasPrice": "0x2e40d28",
      "from": "0x84dc6f8a9cb1e042a0e5a3b4a809c90beb9d3448",
      "to": "0x030c5ff9aafd365fb2fe6215be614a8ee765eafd",
      "contractAddress": null
    },
    {
      "status": "0x1",
      "cumulativeGasUsed": "0x9ab7d1",
      "logs": [
        {
          "address": "0x030c5ff9aafd365fb2fe6215be614a8ee765eafd",
          "topics": [
            "0x58ffae0baf944226215848ca67070a6dfb7d3693f5abd4a1a76285ea4230f152"
          ],
          "data": "0x000000000000000000000000250e6e64276d5e9a1ca0b6c5b2b11c5139cd1fc70000000000000000000000000000000000000000000000000000000000000001",
          "blockHash": "0x30117d39c920ca1d6a210a3eaff163e2595e958ff387d22d1bcb8909ae49ba38",
          "blockNumber": "0x2b4c11",
          "transactionHash": "0x358ab6e282347b0e8b23ce9fbb691b5b5af50d5c5e603cc15f64ff16bb9202d6",
          "transactionIndex": "0x44",
          "logIndex": "0x91",
          "removed": false
        }
      ],
      "logsBloom": "0x00000000000000000000000000000000000000000000000000000000000000000000000000000000000000000000000000000000000000000000000000000000000000000000000000000000010000000000000000000000000000000000000000000000000000000000001000000000000000000000000000000000000000000000000000000000020000000000000000000000000000000000000000000000000000000100000000000000000000000000100008000000000000000000000000000000000000000000000000000000000000000000000000000000000000000000000000000000000000000000000000000000000000000000000000000000",
      "type": "0x2",
      "transactionHash": "0x358ab6e282347b0e8b23ce9fbb691b5b5af50d5c5e603cc15f64ff16bb9202d6",
      "transactionIndex": "0x44",
      "blockHash": "0x30117d39c920ca1d6a210a3eaff163e2595e958ff387d22d1bcb8909ae49ba38",
      "blockNumber": "0x2b4c11",
      "gasUsed": "0xce72",
      "effectiveGasPrice": "0x2e40d28",
      "from": "0x84dc6f8a9cb1e042a0e5a3b4a809c90beb9d3448",
      "to": "0x030c5ff9aafd365fb2fe6215be614a8ee765eafd",
      "contractAddress": null
    }
  ],
  "libraries": [],
  "pending": [],
  "returns": {},
  "timestamp": 1732880919,
  "chain": 17000,
  "commit": "e2c0d82"
}