{
  "transactions": [
    {
      "hash": "0x8d7523cbebc29826a97418304018948d3234bc1551af77edcfcce32855c30f37",
      "transactionType": "CALL",
      "contractName": null,
      "contractAddress": "0x030c5ff9aafd365fb2fe6215be614a8ee765eafd",
      "function": "mint(address,uint256)",
      "arguments": [
        "0x015FC9C8B333Aeb7A91Fd966bbFE6FF9A0ef8331",
        "694200000000000000000000000"
      ],
      "transaction": {
        "from": "0x84dc6f8a9cb1e042a0e5a3b4a809c90beb9d3448",
        "to": "0x030c5ff9aafd365fb2fe6215be614a8ee765eafd",
        "gas": "0x13dd5",
        "value": "0x0",
        "input": "0x40c10f19000000000000000000000000015fc9c8b333aeb7a91fd966bbfe6ff9a0ef83310000000000000000000000000000000000000000023e3a91682f4ec863000000",
        "nonce": "0x17",
        "chainId": "0x4268"
      },
      "additionalContracts": [],
      "isFixedGasLimit": false
    },
    {
      "hash": "0x3ec5c73b1dda8303a665a43b90b734af1e32dc4a3e150a9b0ef7191006020555",
      "transactionType": "CALL",
      "contractName": null,
      "contractAddress": "0x030c5ff9aafd365fb2fe6215be614a8ee765eafd",
      "function": "setTier(address,uint256)",
      "arguments": [
        "0x015FC9C8B333Aeb7A91Fd966bbFE6FF9A0ef8331",
        "1"
      ],
      "transaction": {
        "from": "0x84dc6f8a9cb1e042a0e5a3b4a809c90beb9d3448",
        "to": "0x030c5ff9aafd365fb2fe6215be614a8ee765eafd",
        "gas": "0x12dec",
        "value": "0x0",
        "input": "0xa914adce000000000000000000000000015fc9c8b333aeb7a91fd966bbfe6ff9a0ef83310000000000000000000000000000000000000000000000000000000000000001",
        "nonce": "0x18",
        "chainId": "0x4268"
      },
      "additionalContracts": [],
      "isFixedGasLimit": false
    }
  ],
  "receipts": [
    {
      "status": "0x1",
      "cumulativeGasUsed": "0x4574aa",
      "logs": [
        {
          "address": "0x030c5ff9aafd365fb2fe6215be614a8ee765eafd",
          "topics": [
            "0xddf252ad1be2c89b69c2b068fc378daa952ba7f163c4a11628f55a4df523b3ef",
            "0x0000000000000000000000000000000000000000000000000000000000000000",
            "0x000000000000000000000000015fc9c8b333aeb7a91fd966bbfe6ff9a0ef8331"
          ],
          "data": "0x0000000000000000000000000000000000000000023e3a91682f4ec863000000",
          "blockHash": "0xec59097f49eea0efe9e83a459fdef2fb865d8ad84e8b70e4c1d803c39498b375",
          "blockNumber": "0x2b4c4a",
          "transactionHash": "0x8d7523cbebc29826a97418304018948d3234bc1551af77edcfcce32855c30f37",
          "transactionIndex": "0x1e",
          "logIndex": "0x3c",
          "removed": false
        }
      ],
      "logsBloom": "0x00000000000000000000000000000000000000000000000000000000000000000000000000000000400000000000000000000000000000000000000000000000000000000000000000000008000000000000000000000000000000000000000000000000020000000000001000000800000400000000000000000010000000000000000000000000000000000000000000000000000000000000000000000000000000000100000000000000000000000000100000000000000000000000000000400002000000000000000000000000000000000000000000000000000020000000000000000000000000000000000000000000000000000000000000000000",
      "type": "0x2",
      "transactionHash": "0x8d7523cbebc29826a97418304018948d3234bc1551af77edcfcce32855c30f37",
      "transactionIndex": "0x1e",
      "blockHash": "0xec59097f49eea0efe9e83a459fdef2fb865d8ad84e8b70e4c1d803c39498b375",
      "blockNumber": "0x2b4c4a",
      "gasUsed": "0xe61c",
      "effectiveGasPrice": "0x2e40d27",
      "from": "0x84dc6f8a9cb1e042a0e5a3b4a809c90beb9d3448",
      "to": "0x030c5ff9aafd365fb2fe6215be614a8ee765eafd",
      "contractAddress": null
    },
    {
      "status": "0x1",
      "cumulativeGasUsed": "0x46431c",
      "logs": [
        {
          "address": "0x030c5ff9aafd365fb2fe6215be614a8ee765eafd",
          "topics": [
            "0x58ffae0baf944226215848ca67070a6dfb7d3693f5abd4a1a76285ea4230f152"
          ],
          "data": "0x000000000000000000000000015fc9c8b333aeb7a91fd966bbfe6ff9a0ef83310000000000000000000000000000000000000000000000000000000000000001",
          "blockHash": "0xec59097f49eea0efe9e83a459fdef2fb865d8ad84e8b70e4c1d803c39498b375",
          "blockNumber": "0x2b4c4a",
          "transactionHash": "0x3ec5c73b1dda8303a665a43b90b734af1e32dc4a3e150a9b0ef7191006020555",
          "transactionIndex": "0x1f",
          "logIndex": "0x3d",
          "removed": false
        }
      ],
      "logsBloom": "0x00000000000000000000000000000000000000000000000000000000000000000000000000000000000000000000000000000000000000000000000000000000000000000000000000000000010000000000000000000000000000000000000000000000000000000000001000000000000000000000000000000000000000000000000000000000020000000000000000000000000000000000000000000000000000000100000000000000000000000000100008000000000000000000000000000000000000000000000000000000000000000000000000000000000000000000000000000000000000000000000000000000000000000000000000000000",
      "type": "0x2",
      "transactionHash": "0x3ec5c73b1dda8303a665a43b90b734af1e32dc4a3e150a9b0ef7191006020555",
      "transactionIndex": "0x1f",
      "blockHash": "0xec59097f49eea0efe9e83a459fdef2fb865d8ad84e8b70e4c1d803c39498b375",
      "blockNumber": "0x2b4c4a",
      "gasUsed": "0xce72",
      "effectiveGasPrice": "0x2e40d27",
      "from": "0x84dc6f8a9cb1e042a0e5a3b4a809c90beb9d3448",
      "to": "0x030c5ff9aafd365fb2fe6215be614a8ee765eafd",
      "contractAddress": null
    }
  ],
  "libraries": [],
  "pending": [],
  "returns": {},
  "timestamp": 1732881663,
  "chain": 17000,
  "commit": "e2c0d82"
}