{
  "transactions": [
    {
      "hash": "0x9dac5a00e4d1a580acc36243277b1d3a6b411770bd91d3ffa0f21099f222b3b4",
      "transactionType": "CALL",
      "contractName": null,
      "contractAddress": "0x030c5ff9aafd365fb2fe6215be614a8ee765eafd",
      "function": "mint(address,uint256)",
      "arguments": [
        "0x84Dc6f8A9CB1E042A0E5A3b4a809c90BEB9d3448",
        "100000000000000000000000"
      ],
      "transaction": {
        "from": "0x84dc6f8a9cb1e042a0e5a3b4a809c90beb9d3448",
        "to": "0x030c5ff9aafd365fb2fe6215be614a8ee765eafd",
        "gas": "0x13dc6",
        "value": "0x0",
        "input": "0x40c10f1900000000000000000000000084dc6f8a9cb1e042a0e5a3b4a809c90beb9d344800000000000000000000000000000000000000000000152d02c7e14af6800000",
        "nonce": "0x1b",
        "chainId": "0x4268"
      },
      "additionalContracts": [],
      "isFixedGasLimit": false
    },
    {
      "hash": "0x46e75070112b88ae7438685cbf056d53d87fcdf1a0ec4c5c212d479e16a06c43",
      "transactionType": "CALL",
      "contractName": null,
      "contractAddress": "0x030c5ff9aafd365fb2fe6215be614a8ee765eafd",
      "function": "setTier(address,uint256)",
      "arguments": [
        "0x84Dc6f8A9CB1E042A0E5A3b4a809c90BEB9d3448",
        "0"
      ],
      "transaction": {
        "from": "0x84dc6f8a9cb1e042a0e5a3b4a809c90beb9d3448",
        "to": "0x030c5ff9aafd365fb2fe6215be614a8ee765eafd",
        "gas": "0xb17b",
        "value": "0x0",
        "input": "0xa914adce00000000000000000000000084dc6f8a9cb1e042a0e5a3b4a809c90beb9d34480000000000000000000000000000000000000000000000000000000000000000",
        "nonce": "0x1c",
        "chainId": "0x4268"
      },
      "additionalContracts": [],
      "isFixedGasLimit": false
    }
  ],
  "receipts": [
    {
      "status": "0x1",
      "cumulativeGasUsed": "0x5b1c47",
      "logs": [
        {
          "address": "0x030c5ff9aafd365fb2fe6215be614a8ee765eafd",
          "topics": [
            "0xddf252ad1be2c89b69c2b068fc378daa952ba7f163c4a11628f55a4df523b3ef",
            "0x0000000000000000000000000000000000000000000000000000000000000000",
            "0x00000000000000000000000084dc6f8a9cb1e042a0e5a3b4a809c90beb9d3448"
          ],
          "data": "0x00000000000000000000000000000000000000000000152d02c7e14af6800000",
          "blockHash": "0x6397e74843fc4fa1427e828f79a2f64e6ed402c92e805326503c2bb4d5a735d9",
          "blockNumber": "0x2b4c55",
          "transactionHash": "0x9dac5a00e4d1a580acc36243277b1d3a6b411770bd91d3ffa0f21099f222b3b4",
          "transactionIndex": "0xf",
          "logIndex": "0x17",
          "removed": false
        }
      ],
      "logsBloom": "0x00000000000000000000000000000000000000000000000000000000000000000000000000000000000000000000000000000000000000000000000000000000000000000000000000000008000000001000000000000000000000000000000000000000020000000000001000000800000000000000000000000010000000000000000000000000000000000000000000000000000000000000000000000000000000000100000000000000000000000000100008000000000000000000000000000002000000000000000000000000000000000000000000000000000020000000000000000000000000000000000000000000000000100000000000000000",
      "type": "0x2",
      "transactionHash": "0x9dac5a00e4d1a580acc36243277b1d3a6b411770bd91d3ffa0f21099f222b3b4",
      "transactionIndex": "0xf",
      "blockHash": "0x6397e74843fc4fa1427e828f79a2f64e6ed402c92e805326503c2bb4d5a735d9",
      "blockNumber": "0x2b4c55",
      "gasUsed": "0xe610",
      "effectiveGasPrice": "0x2e31b67",
      "from": "0x84dc6f8a9cb1e042a0e5a3b4a809c90beb9d3448",
      "to": "0x030c5ff9aafd365fb2fe6215be614a8ee765eafd",
      "contractAddress": null
    },
    {
      "status": "0x1",
      "cumulativeGasUsed": "0x5b9cc6",
      "logs": [
        {
          "address": "0x030c5ff9aafd365fb2fe6215be614a8ee765eafd",
          "topics": [
            "0x58ffae0baf944226215848ca67070a6dfb7d3693f5abd4a1a76285ea4230f152"
          ],
          "data": "0x00000000000000000000000084dc6f8a9cb1e042a0e5a3b4a809c90beb9d34480000000000000000000000000000000000000000000000000000000000000000",
          "blockHash": "0x6397e74843fc4fa1427e828f79a2f64e6ed402c92e805326503c2bb4d5a735d9",
          "blockNumber": "0x2b4c55",
          "transactionHash": "0x46e75070112b88ae7438685cbf056d53d87fcdf1a0ec4c5c212d479e16a06c43",
          "transactionIndex": "0x10",
          "logIndex": "0x18",
          "removed": false
        }
      ],
      "logsBloom": "0x00000000000000000000000000000000000000000000000000000000000000000000000000000000000000000000000000000000000000000000000000000000000000000000000000000000010000000000000000000000000000000000000000000000000000000000001000000000000000000000000000000000000000000000000000000000020000000000000000000000000000000000000000000000000000000100000000000000000000000000100008000000000000000000000000000000000000000000000000000000000000000000000000000000000000000000000000000000000000000000000000000000000000000000000000000000",
      "type": "0x2",
      "transactionHash": "0x46e75070112b88ae7438685cbf056d53d87fcdf1a0ec4c5c212d479e16a06c43",
      "transactionIndex": "0x10",
      "blockHash": "0x6397e74843fc4fa1427e828f79a2f64e6ed402c92e805326503c2bb4d5a735d9",
      "blockNumber": "0x2b4c55",
      "gasUsed": "0x807f",
      "effectiveGasPrice": "0x2e31b67",
      "from": "0x84dc6f8a9cb1e042a0e5a3b4a809c90beb9d3448",
      "to": "0x030c5ff9aafd365fb2fe6215be614a8ee765eafd",
      "contractAddress": null
    }
  ],
  "libraries": [],
  "pending": [],
  "returns": {},
  "timestamp": 1732881800,
  "chain": 17000,
  "commit": "e2c0d82"
}