{
  "transactions": [
    {
      "hash": "0x2d991631d55a299ac7ed80b1233900653c46a6910070e740fe3016b139076a26",
      "transactionType": "CALL",
      "contractName": null,
      "contractAddress": "0x030c5ff9aafd365fb2fe6215be614a8ee765eafd",
      "function": "mint(address,uint256)",
      "arguments": [
        "0xDAC616BEc6c3676595C170D757022efc8F73299d",
        "694200000000000000000000"
      ],
      "transaction": {
        "from": "0x84dc6f8a9cb1e042a0e5a3b4a809c90beb9d3448",
        "to": "0x030c5ff9aafd365fb2fe6215be614a8ee765eafd",
        "gas": "0x13db5",
        "value": "0x0",
        "input": "0x40c10f19000000000000000000000000dac616bec6c3676595c170d757022efc8f73299d000000000000000000000000000000000000000000009300a84bd2c44be00000",
        "nonce": "0x13",
        "chainId": "0x4268"
      },
      "additionalContracts": [],
      "isFixedGasLimit": false
    },
    {
      "hash": "0x6401188d684988e3a2d17f321bc4f847b1dcc46d6b08086a1b4951d9e9a82477",
      "transactionType": "CALL",
      "contractName": null,
      "contractAddress": "0x030c5ff9aafd365fb2fe6215be614a8ee765eafd",
      "function": "setTier(address,uint256)",
      "arguments": [
        "0xDAC616BEc6c3676595C170D757022efc8F73299d",
        "4"
      ],
      "transaction": {
        "from": "0x84dc6f8a9cb1e042a0e5a3b4a809c90beb9d3448",
        "to": "0x030c5ff9aafd365fb2fe6215be614a8ee765eafd",
        "gas": "0x11d85",
        "value": "0x0",
        "input": "0xa914adce000000000000000000000000dac616bec6c3676595c170d757022efc8f73299d0000000000000000000000000000000000000000000000000000000000000004",
        "nonce": "0x14",
        "chainId": "0x4268"
      },
      "additionalContracts": [],
      "isFixedGasLimit": false
    }
  ],
  "receipts": [
    {
      "status": "0x1",
      "cumulativeGasUsed": "0x7fb955",
      "logs": [
        {
          "address": "0x030c5ff9aafd365fb2fe6215be614a8ee765eafd",
          "topics": [
            "0xddf252ad1be2c89b69c2b068fc378daa952ba7f163c4a11628f55a4df523b3ef",
            "0x0000000000000000000000000000000000000000000000000000000000000000",
            "0x000000000000000000000000dac616bec6c3676595c170d757022efc8f73299d"
          ],
          "data": "0x000000000000000000000000000000000000000000009300a84bd2c44be00000",
          "blockHash": "0x174a187af6dd11e38ef3dfa66325b9ddd8c6c75b6d1fc84daeb2325037748316",
          "blockNumber": "0x2b4c46",
          "transactionHash": "0x2d991631d55a299ac7ed80b1233900653c46a6910070e740fe3016b139076a26",
          "transactionIndex": "0x14",
          "logIndex": "0x90",
          "removed": false
        }
      ],
      "logsBloom": "0x00000000000000000000000000000000000000000000000000000000000000000000000000000000000000000000000000000000000000000000000000000000100000000000000000400008000000000000000000000000000000000000000000000000020000000000001000000800000000000000000000000010000000000000000000000000000000000000000000000000000000000000000000000000000000000100000000000000000000000000100000000000000000000000000000000002000000000000000000000000000000000000000000000000000020000000000000000000100000000000000000000000000000000000000000000000",
      "type": "0x2",
      "transactionHash": "0x2d991631d55a299ac7ed80b1233900653c46a6910070e740fe3016b139076a26",
      "transactionIndex": "0x14",
      "blockHash": "0x174a187af6dd11e38ef3dfa66325b9ddd8c6c75b6d1fc84daeb2325037748316",
      "blockNumber": "0x2b4c46",
      "gasUsed": "0xe604",
      "effectiveGasPrice": "0x2e40d27",
      "from": "0x84dc6f8a9cb1e042a0e5a3b4a809c90beb9d3448",
      "to": "0x030c5ff9aafd365fb2fe6215be614a8ee765eafd",
      "contractAddress": null
    },
    {
      "status": "0x1",
      "cumulativeGasUsed": "0x80880c",
      "logs": [
        {
          "address": "0x030c5ff9aafd365fb2fe6215be614a8ee765eafd",
          "topics": [
            "0x58ffae0baf944226215848ca67070a6dfb7d3693f5abd4a1a76285ea4230f152"
          ],
          "data": "0x000000000000000000000000dac616bec6c3676595c170d757022efc8f73299d0000000000000000000000000000000000000000000000000000000000000004",
          "blockHash": "0x174a187af6dd11e38ef3dfa66325b9ddd8c6c75b6d1fc84daeb2325037748316",
          "blockNumber": "0x2b4c46",
          "transactionHash": "0x6401188d684988e3a2d17f321bc4f847b1dcc46d6b08086a1b4951d9e9a82477",
          "transactionIndex": "0x15",
          "logIndex": "0x91",
          "removed": false
        }
      ],
      "logsBloom": "0x00000000000000000000000000000000000000000000000000000000000000000000000000000000000000000000000000000000000000000000000000000000000000000000000000000000010000000000000000000000000000000000000000000000000000000000001000000000000000000000000000000000000000000000000000000000020000000000000000000000000000000000000000000000000000000100000000000000000000000000100008000000000000000000000000000000000000000000000000000000000000000000000000000000000000000000000000000000000000000000000000000000000000000000000000000000",
      "type": "0x2",
      "transactionHash": "0x6401188d684988e3a2d17f321bc4f847b1dcc46d6b08086a1b4951d9e9a82477",
      "transactionIndex": "0x15",
      "blockHash": "0x174a187af6dd11e38ef3dfa66325b9ddd8c6c75b6d1fc84daeb2325037748316",
      "blockNumber": "0x2b4c46",
      "gasUsed": "0xceb7",
      "effectiveGasPrice": "0x2e40d27",
      "from": "0x84dc6f8a9cb1e042a0e5a3b4a809c90beb9d3448",
      "to": "0x030c5ff9aafd365fb2fe6215be614a8ee765eafd",
      "contractAddress": null
    }
  ],
  "libraries": [],
  "pending": [],
  "returns": {},
  "timestamp": 1732881617,
  "chain": 17000,
  "commit": "e2c0d82"
}