{
  "transactions": [
    {
      "hash": "0x89630b6936cb2ddefd1a5c68699a66d0f4765e30342f8a0a51304745fbc3345f",
      "transactionType": "CALL",
      "contractName": null,
      "contractAddress": "0x030c5ff9aafd365fb2fe6215be614a8ee765eafd",
      "function": "mint(address,uint256)",
      "arguments": [
        "0x250e6E64276D5e9a1cA0B6C5B2B11c5139CD1Fc7",
        "694200000000000000000000000"
      ],
      "transaction": {
        "from": "0x84dc6f8a9cb1e042a0e5a3b4a809c90beb9d3448",
        "to": "0x030c5ff9aafd365fb2fe6215be614a8ee765eafd",
        "gas": "0x13dd5",
        "value": "0x0",
        "input": "0x40c10f19000000000000000000000000250e6e64276d5e9a1ca0b6c5b2b11c5139cd1fc70000000000000000000000000000000000000000023e3a91682f4ec863000000",
        "nonce": "0x11",
        "chainId": "0x4268"
      },
      "additionalContracts": [],
      "isFixedGasLimit": false
    },
    {
      "hash": "0xfffbb57e06fbe8c36214ecf1ce67afd733bd378fb23da843f169fac66dd52687",
      "transactionType": "CALL",
      "contractName": null,
      "contractAddress": "0x030c5ff9aafd365fb2fe6215be614a8ee765eafd",
      "function": "setTier(address,uint256)",
      "arguments": [
        "0x250e6E64276D5e9a1cA0B6C5B2B11c5139CD1Fc7",
        "1"
      ],
      "transaction": {
        "from": "0x84dc6f8a9cb1e042a0e5a3b4a809c90beb9d3448",
        "to": "0x030c5ff9aafd365fb2fe6215be614a8ee765eafd",
        "gas": "0xb1c7",
        "value": "0x0",
        "input": "0xa914adce000000000000000000000000250e6e64276d5e9a1ca0b6c5b2b11c5139cd1fc70000000000000000000000000000000000000000000000000000000000000001",
        "nonce": "0x12",
        "chainId": "0x4268"
      },
      "additionalContracts": [],
      "isFixedGasLimit": false
    }
  ],
  "receipts": [
    {
      "status": "0x1",
      "cumulativeGasUsed": "0x83f042",
      "logs": [
        {
          "address": "0x030c5ff9aafd365fb2fe6215be614a8ee765eafd",
          "topics": [
            "0xddf252ad1be2c89b69c2b068fc378daa952ba7f163c4a11628f55a4df523b3ef",
            "0x0000000000000000000000000000000000000000000000000000000000000000",
            "0x000000000000000000000000250e6e64276d5e9a1ca0b6c5b2b11c5139cd1fc7"
          ],
          "data": "0x0000000000000000000000000000000000000000023e3a91682f4ec863000000",
          "blockHash": "0xbd962d09ca59b071a203faa14342c41a0439ee10d9336cffd985b66ed956eb73",
          "blockNumber": "0x2b4c42",
          "transactionHash": "0x89630b6936cb2ddefd1a5c68699a66d0f4765e30342f8a0a51304745fbc3345f",
          "transactionIndex": "0x20",
          "logIndex": "0x35",
          "removed": false
        }
      ],
      "logsBloom": "0x00000000000000000000000000000000000000000000000000000000000000000000000000000000000000000000000000000000000000000000000000000000000000020000000000000008000000000000000000000000000000000000000000000000020000000000001000000800000000000000000000000010000000000000000000000000000000000000000000000000000000000000000000000000000000000100000000100000000000000000100000000000000000000000000000000002000000000002000000000000000000000000000000000000000020000000000000000000000000000000000000000000000000000000000000000000",
      "type": "0x2",
      "transactionHash": "0x89630b6936cb2ddefd1a5c68699a66d0f4765e30342f8a0a51304745fbc3345f",
      "transactionIndex": "0x20",
      "blockHash": "0xbd962d09ca59b071a203faa14342c41a0439ee10d9336cffd985b66ed956eb73",
      "blockNumber": "0x2b4c42",
      "gasUsed": "0xe61c",
      "effectiveGasPrice": "0x2e40d27",
      "from": "0x84dc6f8a9cb1e042a0e5a3b4a809c90beb9d3448",
      "to": "0x030c5ff9aafd365fb2fe6215be614a8ee765eafd",
      "contractAddress": null
    },
    {
      "status": "0x1",
      "cumulativeGasUsed": "0x8470f8",
      "logs": [
        {
          "address": "0x030c5ff9aafd365fb2fe6215be614a8ee765eafd",
          "topics": [
            "0x58ffae0baf944226215848ca67070a6dfb7d3693f5abd4a1a76285ea4230f152"
          ],
          "data": "0x000000000000000000000000250e6e64276d5e9a1ca0b6c5b2b11c5139cd1fc70000000000000000000000000000000000000000000000000000000000000001",
          "blockHash": "0xbd962d09ca59b071a203faa14342c41a0439ee10d9336cffd985b66ed956eb73",
          "blockNumber": "0x2b4c42",
          "transactionHash": "0xfffbb57e06fbe8c36214ecf1ce67afd733bd378fb23da843f169fac66dd52687",
          "transactionIndex": "0x21",
          "logIndex": "0x36",
          "removed": false
        }
      ],
      "logsBloom": "0x00000000000000000000000000000000000000000000000000000000000000000000000000000000000000000000000000000000000000000000000000000000000000000000000000000000010000000000000000000000000000000000000000000000000000000000001000000000000000000000000000000000000000000000000000000000020000000000000000000000000000000000000000000000000000000100000000000000000000000000100008000000000000000000000000000000000000000000000000000000000000000000000000000000000000000000000000000000000000000000000000000000000000000000000000000000",
      "type": "0x2",
      "transactionHash": "0xfffbb57e06fbe8c36214ecf1ce67afd733bd378fb23da843f169fac66dd52687",
      "transactionIndex": "0x21",
      "blockHash": "0xbd962d09ca59b071a203faa14342c41a0439ee10d9336cffd985b66ed956eb73",
      "blockNumber": "0x2b4c42",
      "gasUsed": "0x80b6",
      "effectiveGasPrice": "0x2e40d27",
      "from": "0x84dc6f8a9cb1e042a0e5a3b4a809c90beb9d3448",
      "to": "0x030c5ff9aafd365fb2fe6215be614a8ee765eafd",
      "contractAddress": null
    }
  ],
  "libraries": [],
  "pending": [],
  "returns": {},
  "timestamp": 1732881567,
  "chain": 17000,
  "commit": "e2c0d82"
}