{
  "transactions": [
    {
      "hash": "0x5bf01499f0a50caa3df7ca343264a31445a074100aeb1b7da1b86fa575123d3b",
      "transactionType": "CALL",
      "contractName": null,
      "contractAddress": "0x030c5ff9aafd365fb2fe6215be614a8ee765eafd",
      "function": "mint(address,uint256)",
      "arguments": [
        "0xF0549A19854a95f702db29BadC7Ca05D1BF8F378",
        "69420000000000000000000000"
      ],
      "transaction": {
        "from": "0x84dc6f8a9cb1e042a0e5a3b4a809c90beb9d3448",
        "to": "0x030c5ff9aafd365fb2fe6215be614a8ee765eafd",
        "gas": "0x13dd5",
        "value": "0x0",
        "input": "0x40c10f19000000000000000000000000f0549a19854a95f702db29badc7ca05d1bf8f378000000000000000000000000000000000000000000396c41bd9e54ada3800000",
        "nonce": "0x19",
        "chainId": "0x4268"
      },
      "additionalContracts": [],
      "isFixedGasLimit": false
    },
    {
      "hash": "0xeccaf17661f81257ef0e3adf329590899851e6b1fbccdad7637983c57501b1e9",
      "transactionType": "CALL",
      "contractName": null,
      "contractAddress": "0x030c5ff9aafd365fb2fe6215be614a8ee765eafd",
      "function": "setTier(address,uint256)",
      "arguments": [
        "0xF0549A19854a95f702db29BadC7Ca05D1BF8F378",
        "2"
      ],
      "transaction": {
        "from": "0x84dc6f8a9cb1e042a0e5a3b4a809c90beb9d3448",
        "to": "0x030c5ff9aafd365fb2fe6215be614a8ee765eafd",
        "gas": "0x12e0e",
        "value": "0x0",
        "input": "0xa914adce000000000000000000000000f0549a19854a95f702db29badc7ca05d1bf8f3780000000000000000000000000000000000000000000000000000000000000002",
        "nonce": "0x1a",
        "chainId": "0x4268"
      },
      "additionalContracts": [],
      "isFixedGasLimit": false
    }
  ],
  "receipts": [
    {
      "status": "0x1",
      "cumulativeGasUsed": "0x43de2e",
      "logs": [
        {
          "address": "0x030c5ff9aafd365fb2fe6215be614a8ee765eafd",
          "topics": [
            "0xddf252ad1be2c89b69c2b068fc378daa952ba7f163c4a11628f55a4df523b3ef",
            "0x0000000000000000000000000000000000000000000000000000000000000000",
            "0x000000000000000000000000f0549a19854a95f702db29badc7ca05d1bf8f378"
          ],
          "data": "0x000000000000000000000000000000000000000000396c41bd9e54ada3800000",
          "blockHash": "0x0a6c2182ace9d81ea923c676be123007e5503d41397309c5bf81712f8239cc3b",
          "blockNumber": "0x2b4c4c",
          "transactionHash": "0x5bf01499f0a50caa3df7ca343264a31445a074100aeb1b7da1b86fa575123d3b",
          "transactionIndex": "0x19",
          "logIndex": "0x1e",
          "removed": false
        }
      ],
      "logsBloom": "0x00000000000000000000000000000000000000000000000000000000000000000000000000000000000000000000020000000000000000000000000000000000000000000000000000400008000000000000000000000000000000000000000000000000020000000000001000000800000000000000000000000010000000000000000000000000000000000000000000000000000000000000000000000000000000000100000000000000000000000000100000000000000000000000000000000002000000000000000000000000000000000000080000000000000020000000000000000000000000000000000000000000000000000000000000000000",
      "type": "0x2",
      "transactionHash": "0x5bf01499f0a50caa3df7ca343264a31445a074100aeb1b7da1b86fa575123d3b",
      "transactionIndex": "0x19",
      "blockHash": "0x0a6c2182ace9d81ea923c676be123007e5503d41397309c5bf81712f8239cc3b",
      "blockNumber": "0x2b4c4c",
      "gasUsed": "0xe61c",
      "effectiveGasPrice": "0x2e40d27",
      "from": "0x84dc6f8a9cb1e042a0e5a3b4a809c90beb9d3448",
      "to": "0x030c5ff9aafd365fb2fe6215be614a8ee765eafd",
      "contractAddress": null
    },
    {
      "status": "0x1",
      "cumulativeGasUsed": "0x44acb7",
      "logs": [
        {
          "address": "0x030c5ff9aafd365fb2fe6215be614a8ee765eafd",
          "topics": [
            "0x58ffae0baf944226215848ca67070a6dfb7d3693f5abd4a1a76285ea4230f152"
          ],
          "data": "0x000000000000000000000000f0549a19854a95f702db29badc7ca05d1bf8f3780000000000000000000000000000000000000000000000000000000000000002",
          "blockHash": "0x0a6c2182ace9d81ea923c676be123007e5503d41397309c5bf81712f8239cc3b",
          "blockNumber": "0x2b4c4c",
          "transactionHash": "0xeccaf17661f81257ef0e3adf329590899851e6b1fbccdad7637983c57501b1e9",
          "transactionIndex": "0x1a",
          "logIndex": "0x1f",
          "removed": false
        }
      ],
      "logsBloom": "0x00000000000000000000000000000000000000000000000000000000000000000000000000000000000000000000000000000000000000000000000000000000000000000000000000000000010000000000000000000000000000000000000000000000000000000000001000000000000000000000000000000000000000000000000000000000020000000000000000000000000000000000000000000000000000000100000000000000000000000000100008000000000000000000000000000000000000000000000000000000000000000000000000000000000000000000000000000000000000000000000000000000000000000000000000000000",
      "type": "0x2",
      "transactionHash": "0xeccaf17661f81257ef0e3adf329590899851e6b1fbccdad7637983c57501b1e9",
      "transactionIndex": "0x1a",
      "blockHash": "0x0a6c2182ace9d81ea923c676be123007e5503d41397309c5bf81712f8239cc3b",
      "blockNumber": "0x2b4c4c",
      "gasUsed": "0xce89",
      "effectiveGasPrice": "0x2e40d27",
      "from": "0x84dc6f8a9cb1e042a0e5a3b4a809c90beb9d3448",
      "to": "0x030c5ff9aafd365fb2fe6215be614a8ee765eafd",
      "contractAddress": null
    }
  ],
  "libraries": [],
  "pending": [],
  "returns": {},
  "timestamp": 1732881688,
  "chain": 17000,
  "commit": "e2c0d82"
}